{
  "contractName": "GrumpyPawthSwap",
  "abi": [
    {
      "inputs": [
        {
          "internalType": "contract Grumpy",
          "name": "_grumpy",
          "type": "address"
        },
        {
          "internalType": "contract Pawth",
          "name": "_pawth",
          "type": "address"
        }
      ],
      "payable": false,
      "stateMutability": "nonpayable",
      "type": "constructor"
    },
    {
      "anonymous": false,
      "inputs": [
        {
          "indexed": false,
          "internalType": "address",
          "name": "account",
          "type": "address"
        },
        {
          "indexed": false,
          "internalType": "address",
          "name": "grumpy",
          "type": "address"
        },
        {
          "indexed": false,
          "internalType": "uint256",
          "name": "amount",
          "type": "uint256"
        },
        {
          "indexed": false,
          "internalType": "uint256",
          "name": "rate",
          "type": "uint256"
        }
      ],
      "name": "GrumpySwappedForPawth",
      "type": "event"
    },
    {
      "anonymous": false,
      "inputs": [
        {
          "indexed": false,
          "internalType": "address",
          "name": "account",
          "type": "address"
        },
        {
          "indexed": false,
          "internalType": "address",
          "name": "token",
          "type": "address"
        },
        {
          "indexed": false,
          "internalType": "uint256",
          "name": "amount",
          "type": "uint256"
        },
        {
          "indexed": false,
          "internalType": "uint256",
          "name": "rate",
          "type": "uint256"
        }
      ],
      "name": "PawthSwappedForGrumpy",
      "type": "event"
    },
    {
      "constant": true,
      "inputs": [],
      "name": "grumpy",
      "outputs": [
        {
          "internalType": "contract Grumpy",
          "name": "",
          "type": "address"
        }
      ],
      "payable": false,
      "stateMutability": "view",
      "type": "function"
    },
    {
      "constant": true,
      "inputs": [],
      "name": "name",
      "outputs": [
        {
          "internalType": "string",
          "name": "",
          "type": "string"
        }
      ],
      "payable": false,
      "stateMutability": "view",
      "type": "function"
    },
    {
      "constant": true,
      "inputs": [],
      "name": "pawth",
      "outputs": [
        {
          "internalType": "contract Pawth",
          "name": "",
          "type": "address"
        }
      ],
      "payable": false,
      "stateMutability": "view",
      "type": "function"
    },
    {
      "constant": true,
      "inputs": [],
      "name": "rate",
      "outputs": [
        {
          "internalType": "uint256",
          "name": "",
          "type": "uint256"
        }
      ],
      "payable": false,
      "stateMutability": "view",
      "type": "function"
    },
    {
      "constant": false,
      "inputs": [
        {
          "internalType": "uint256",
          "name": "_amount",
          "type": "uint256"
        }
      ],
      "name": "swapPawthForGrumpy",
      "outputs": [],
      "payable": true,
      "stateMutability": "payable",
      "type": "function"
    },
    {
      "constant": false,
      "inputs": [
        {
          "internalType": "uint256",
          "name": "_amount",
          "type": "uint256"
        }
      ],
      "name": "swapGrumpyForPawth",
      "outputs": [],
      "payable": false,
      "stateMutability": "nonpayable",
      "type": "function"
    }
  ],
  "bytecode": "0x60806040526040518060400160405280601181526020017f4772756d707920506177746820537761700000000000000000000000000000008152506000908051906020019061004f92919061012a565b50620186a060035534801561006357600080fd5b50604051610e7a380380610e7a8339818101604052604081101561008657600080fd5b81019080805190602001909291908051906020019092919050505081600160006101000a81548173ffffffffffffffffffffffffffffffffffffffff021916908373ffffffffffffffffffffffffffffffffffffffff16021790555080600260006101000a81548173ffffffffffffffffffffffffffffffffffffffff021916908373ffffffffffffffffffffffffffffffffffffffff16021790555050506101cf565b828054600181600116156101000203166002900490600052602060002090601f016020900481019282601f1061016b57805160ff1916838001178555610199565b82800160010185558215610199579182015b8281111561019857825182559160200191906001019061017d565b5b5090506101a691906101aa565b5090565b6101cc91905b808211156101c85760008160009055506001016101b0565b5090565b90565b610c9c806101de6000396000f3fe6080604052600436106100555760003560e01c806306fdde031461005a5780632c4e722e146100ea57806366f3e37e14610115578063b7e86b6214610143578063ba13787f1461017e578063e75b1393146101d5575b600080fd5b34801561006657600080fd5b5061006f61022c565b6040518080602001828103825283818151815260200191508051906020019080838360005b838110156100af578082015181840152602081019050610094565b50505050905090810190601f1680156100dc5780820380516001836020036101000a031916815260200191505b509250505060405180910390f35b3480156100f657600080fd5b506100ff6102ca565b6040518082815260200191505060405180910390f35b6101416004803603602081101561012b57600080fd5b81019080803590602001909291905050506102d0565b005b34801561014f57600080fd5b5061017c6004803603602081101561016657600080fd5b8101908080359060200190929190505050610772565b005b34801561018a57600080fd5b50610193610c1b565b604051808273ffffffffffffffffffffffffffffffffffffffff1673ffffffffffffffffffffffffffffffffffffffff16815260200191505060405180910390f35b3480156101e157600080fd5b506101ea610c41565b604051808273ffffffffffffffffffffffffffffffffffffffff1673ffffffffffffffffffffffffffffffffffffffff16815260200191505060405180910390f35b60008054600181600116156101000203166002900480601f0160208091040260200160405190810160405280929190818152602001828054600181600116156101000203166002900480156102c25780601f10610297576101008083540402835291602001916102c2565b820191906000526020600020905b8154815290600101906020018083116102a557829003601f168201915b505050505081565b60035481565b80600260009054906101000a900473ffffffffffffffffffffffffffffffffffffffff1673ffffffffffffffffffffffffffffffffffffffff166370a08231336040518263ffffffff1660e01b8152600401808273ffffffffffffffffffffffffffffffffffffffff1673ffffffffffffffffffffffffffffffffffffffff16815260200191505060206040518083038186803b15801561037057600080fd5b505afa158015610384573d6000803e3d6000fd5b505050506040513d602081101561039a57600080fd5b810190808051906020019092919050505010156103b657600080fd5b600260009054906101000a900473ffffffffffffffffffffffffffffffffffffffff1673ffffffffffffffffffffffffffffffffffffffff166323b872dd3330846040518463ffffffff1660e01b8152600401808473ffffffffffffffffffffffffffffffffffffffff1673ffffffffffffffffffffffffffffffffffffffff1681526020018373ffffffffffffffffffffffffffffffffffffffff1673ffffffffffffffffffffffffffffffffffffffff1681526020018281526020019350505050602060405180830381600087803b15801561049357600080fd5b505af11580156104a7573d6000803e3d6000fd5b505050506040513d60208110156104bd57600080fd5b81019080805190602001909291905050505060006003548202905080600160009054906101000a900473ffffffffffffffffffffffffffffffffffffffff1673ffffffffffffffffffffffffffffffffffffffff166370a08231306040518263ffffffff1660e01b8152600401808273ffffffffffffffffffffffffffffffffffffffff1673ffffffffffffffffffffffffffffffffffffffff16815260200191505060206040518083038186803b15801561057857600080fd5b505afa15801561058c573d6000803e3d6000fd5b505050506040513d60208110156105a257600080fd5b810190808051906020019092919050505010156105be57600080fd5b600160009054906101000a900473ffffffffffffffffffffffffffffffffffffffff1673ffffffffffffffffffffffffffffffffffffffff1663a9059cbb33836040518363ffffffff1660e01b8152600401808373ffffffffffffffffffffffffffffffffffffffff1673ffffffffffffffffffffffffffffffffffffffff16815260200182815260200192505050602060405180830381600087803b15801561066757600080fd5b505af115801561067b573d6000803e3d6000fd5b505050506040513d602081101561069157600080fd5b8101908080519060200190929190505050507f6ac6a63e7a66a423397fc65e3dcb663bcf13ae9c49ccce115d6a9cce8c6058a333600260009054906101000a900473ffffffffffffffffffffffffffffffffffffffff1684600354604051808573ffffffffffffffffffffffffffffffffffffffff1673ffffffffffffffffffffffffffffffffffffffff1681526020018473ffffffffffffffffffffffffffffffffffffffff1673ffffffffffffffffffffffffffffffffffffffff16815260200183815260200182815260200194505050505060405180910390a15050565b80600160009054906101000a900473ffffffffffffffffffffffffffffffffffffffff1673ffffffffffffffffffffffffffffffffffffffff166370a08231336040518263ffffffff1660e01b8152600401808273ffffffffffffffffffffffffffffffffffffffff1673ffffffffffffffffffffffffffffffffffffffff16815260200191505060206040518083038186803b15801561081257600080fd5b505afa158015610826573d6000803e3d6000fd5b505050506040513d602081101561083c57600080fd5b8101908080519060200190929190505050101561085857600080fd5b6000600354828161086557fe5b04905080600260009054906101000a900473ffffffffffffffffffffffffffffffffffffffff1673ffffffffffffffffffffffffffffffffffffffff166370a08231306040518263ffffffff1660e01b8152600401808273ffffffffffffffffffffffffffffffffffffffff1673ffffffffffffffffffffffffffffffffffffffff16815260200191505060206040518083038186803b15801561090857600080fd5b505afa15801561091c573d6000803e3d6000fd5b505050506040513d602081101561093257600080fd5b8101908080519060200190929190505050101561094e57600080fd5b600160009054906101000a900473ffffffffffffffffffffffffffffffffffffffff1673ffffffffffffffffffffffffffffffffffffffff166323b872dd3330856040518463ffffffff1660e01b8152600401808473ffffffffffffffffffffffffffffffffffffffff1673ffffffffffffffffffffffffffffffffffffffff1681526020018373ffffffffffffffffffffffffffffffffffffffff1673ffffffffffffffffffffffffffffffffffffffff1681526020018281526020019350505050602060405180830381600087803b158015610a2b57600080fd5b505af1158015610a3f573d6000803e3d6000fd5b505050506040513d6020811015610a5557600080fd5b810190808051906020019092919050505050600260009054906101000a900473ffffffffffffffffffffffffffffffffffffffff1673ffffffffffffffffffffffffffffffffffffffff1663a9059cbb33836040518363ffffffff1660e01b8152600401808373ffffffffffffffffffffffffffffffffffffffff1673ffffffffffffffffffffffffffffffffffffffff16815260200182815260200192505050602060405180830381600087803b158015610b1057600080fd5b505af1158015610b24573d6000803e3d6000fd5b505050506040513d6020811015610b3a57600080fd5b8101908080519060200190929190505050507f6d3c0866af065918b7e4108af9ea8a27047f26b9b030bce7ebc2d8e135d302a333600160009054906101000a900473ffffffffffffffffffffffffffffffffffffffff1684600354604051808573ffffffffffffffffffffffffffffffffffffffff1673ffffffffffffffffffffffffffffffffffffffff1681526020018473ffffffffffffffffffffffffffffffffffffffff1673ffffffffffffffffffffffffffffffffffffffff16815260200183815260200182815260200194505050505060405180910390a15050565b600260009054906101000a900473ffffffffffffffffffffffffffffffffffffffff1681565b600160009054906101000a900473ffffffffffffffffffffffffffffffffffffffff168156fea265627a7a72315820edda0be5a736391920cb808e9f4b5c5a7f0cb4c5aab0bfa6fe9ddd41d2cd075c64736f6c63430005100032",
  "source": "pragma solidity ^0.5.0;\n\nimport \"./Grumpy.sol\";\nimport \"./Pawth.sol\";\n\ncontract GrumpyPawthSwap {\n  string public name = \"Grumpy Pawth Swap\";\n  Grumpy public grumpy;\n  Pawth public pawth;\n  uint public rate = 100000;\n\n  event PawthSwappedForGrumpy(\n    address account,\n    address token,\n    uint amount,\n    uint rate\n  );\n\n  event GrumpySwappedForPawth(\n    address account,\n    address grumpy,\n    uint amount,\n    uint rate\n  );\n\n  constructor(Grumpy _grumpy, Pawth _pawth) public {\n    grumpy = _grumpy;\n    pawth = _pawth;\n  }\n\n  function swapPawthForGrumpy(uint _amount) public payable {\n    // User can't sell more tokens than they have\n    require(pawth.balanceOf(msg.sender) >= _amount);\n\n    // Send pawth to the swap\n    pawth.transferFrom(msg.sender, address(this), _amount);\n\n    // Calculate the amount of grumpy to redeem\n    uint grumpyAmount = _amount * rate;\n\n    // Require that GrumpyPawthSwap has enough Grumpy\n    require(grumpy.balanceOf(address(this)) >= grumpyAmount);\n\n    // Perform swap\n    grumpy.transfer(msg.sender, grumpyAmount);\n\n    // Emit an event\n    emit PawthSwappedForGrumpy(msg.sender, address(pawth), _amount, rate);\n  }\n\n  function swapGrumpyForPawth(uint _amount) public {\n    // User can't sell more tokens than they have\n    require(grumpy.balanceOf(msg.sender) >= _amount);\n\n    // Calculate the amount of Ether to redeem\n    uint pawthAmount = _amount / rate;\n\n    // Require that GrumpyPawthSwap has enough Pawth\n    require(pawth.balanceOf(address(this)) >= pawthAmount);\n\n    // Perform sale\n    grumpy.transferFrom(msg.sender, address(this), _amount);\n    pawth.transfer(msg.sender, pawthAmount);\n\n    // Emit an event\n    emit GrumpySwappedForPawth(msg.sender, address(grumpy), _amount, rate);\n  }\n\n}\n",
  "sourcePath": "/Users/msolomon/Projects/GrumpyPawthSwap/src/contracts/GrumpyPawthSwap.sol",
  "compiler": {
    "name": "solc",
    "version": "0.5.16+commit.9c3226ce.Emscripten.clang"
  },
  "schemaVersion": "3.4.0",
  "updatedAt": "2021-08-26T15:00:53.611Z",
  "networkType": "ethereum",
  "devdoc": {
    "methods": {}
  },
  "userdoc": {
    "methods": {}
  }
}