{
  "contractName": "PawthereumTest",
  "abi": [
    {
      "inputs": [],
      "stateMutability": "nonpayable",
      "type": "constructor"
    },
    {
      "anonymous": false,
      "inputs": [
        {
          "indexed": true,
          "internalType": "address",
          "name": "owner",
          "type": "address"
        },
        {
          "indexed": true,
          "internalType": "address",
          "name": "spender",
          "type": "address"
        },
        {
          "indexed": false,
          "internalType": "uint256",
          "name": "value",
          "type": "uint256"
        }
      ],
      "name": "Approval",
      "type": "event"
    },
    {
      "anonymous": false,
      "inputs": [
        {
          "indexed": true,
          "internalType": "address",
          "name": "previousOwner",
          "type": "address"
        },
        {
          "indexed": true,
          "internalType": "address",
          "name": "newOwner",
          "type": "address"
        }
      ],
      "name": "OwnershipTransferred",
      "type": "event"
    },
    {
      "anonymous": false,
      "inputs": [
        {
          "indexed": false,
          "internalType": "uint256",
          "name": "tokensSwapped",
          "type": "uint256"
        },
        {
          "indexed": false,
          "internalType": "uint256",
          "name": "ethReceived",
          "type": "uint256"
        },
        {
          "indexed": false,
          "internalType": "uint256",
          "name": "tokensIntoLiqudity",
          "type": "uint256"
        }
      ],
      "name": "SwapAndLiquify",
      "type": "event"
    },
    {
      "anonymous": false,
      "inputs": [
        {
          "indexed": false,
          "internalType": "bool",
          "name": "enabled",
          "type": "bool"
        }
      ],
      "name": "SwapAndLiquifyEnabledUpdated",
      "type": "event"
    },
    {
      "anonymous": false,
      "inputs": [
        {
          "indexed": true,
          "internalType": "address",
          "name": "from",
          "type": "address"
        },
        {
          "indexed": true,
          "internalType": "address",
          "name": "to",
          "type": "address"
        },
        {
          "indexed": false,
          "internalType": "uint256",
          "name": "value",
          "type": "uint256"
        }
      ],
      "name": "Transfer",
      "type": "event"
    },
    {
      "inputs": [],
      "name": "_burnFee",
      "outputs": [
        {
          "internalType": "uint256",
          "name": "",
          "type": "uint256"
        }
      ],
      "stateMutability": "view",
      "type": "function",
      "constant": true
    },
    {
      "inputs": [],
      "name": "_burnFeeTotal",
      "outputs": [
        {
          "internalType": "uint256",
          "name": "",
          "type": "uint256"
        }
      ],
      "stateMutability": "view",
      "type": "function",
      "constant": true
    },
    {
      "inputs": [],
      "name": "_charityFee",
      "outputs": [
        {
          "internalType": "uint256",
          "name": "",
          "type": "uint256"
        }
      ],
      "stateMutability": "view",
      "type": "function",
      "constant": true
    },
    {
      "inputs": [],
      "name": "_charityFeeTotal",
      "outputs": [
        {
          "internalType": "uint256",
          "name": "",
          "type": "uint256"
        }
      ],
      "stateMutability": "view",
      "type": "function",
      "constant": true
    },
    {
      "inputs": [],
      "name": "_feeDecimal",
      "outputs": [
        {
          "internalType": "uint256",
          "name": "",
          "type": "uint256"
        }
      ],
      "stateMutability": "view",
      "type": "function",
      "constant": true
    },
    {
      "inputs": [],
      "name": "_liquidityFee",
      "outputs": [
        {
          "internalType": "uint256",
          "name": "",
          "type": "uint256"
        }
      ],
      "stateMutability": "view",
      "type": "function",
      "constant": true
    },
    {
      "inputs": [],
      "name": "_liquidityFeeTotal",
      "outputs": [
        {
          "internalType": "uint256",
          "name": "",
          "type": "uint256"
        }
      ],
      "stateMutability": "view",
      "type": "function",
      "constant": true
    },
    {
      "inputs": [],
      "name": "_marketingFee",
      "outputs": [
        {
          "internalType": "uint256",
          "name": "",
          "type": "uint256"
        }
      ],
      "stateMutability": "view",
      "type": "function",
      "constant": true
    },
    {
      "inputs": [],
      "name": "_marketingFeeTotal",
      "outputs": [
        {
          "internalType": "uint256",
          "name": "",
          "type": "uint256"
        }
      ],
      "stateMutability": "view",
      "type": "function",
      "constant": true
    },
    {
      "inputs": [],
      "name": "_taxFee",
      "outputs": [
        {
          "internalType": "uint256",
          "name": "",
          "type": "uint256"
        }
      ],
      "stateMutability": "view",
      "type": "function",
      "constant": true
    },
    {
      "inputs": [],
      "name": "_taxFeeTotal",
      "outputs": [
        {
          "internalType": "uint256",
          "name": "",
          "type": "uint256"
        }
      ],
      "stateMutability": "view",
      "type": "function",
      "constant": true
    },
    {
      "inputs": [],
      "name": "charityWallet",
      "outputs": [
        {
          "internalType": "address",
          "name": "",
          "type": "address"
        }
      ],
      "stateMutability": "view",
      "type": "function",
      "constant": true
    },
    {
      "inputs": [],
      "name": "isTaxActive",
      "outputs": [
        {
          "internalType": "bool",
          "name": "",
          "type": "bool"
        }
      ],
      "stateMutability": "view",
      "type": "function",
      "constant": true
    },
    {
      "inputs": [],
      "name": "marketingWallet",
      "outputs": [
        {
          "internalType": "address",
          "name": "",
          "type": "address"
        }
      ],
      "stateMutability": "view",
      "type": "function",
      "constant": true
    },
    {
      "inputs": [],
      "name": "maxTxAmount",
      "outputs": [
        {
          "internalType": "uint256",
          "name": "",
          "type": "uint256"
        }
      ],
      "stateMutability": "view",
      "type": "function",
      "constant": true
    },
    {
      "inputs": [],
      "name": "minTokensBeforeSwap",
      "outputs": [
        {
          "internalType": "uint256",
          "name": "",
          "type": "uint256"
        }
      ],
      "stateMutability": "view",
      "type": "function",
      "constant": true
    },
    {
      "inputs": [],
      "name": "owner",
      "outputs": [
        {
          "internalType": "address",
          "name": "",
          "type": "address"
        }
      ],
      "stateMutability": "view",
      "type": "function",
      "constant": true
    },
    {
      "inputs": [],
      "name": "renounceOwnership",
      "outputs": [],
      "stateMutability": "nonpayable",
      "type": "function"
    },
    {
      "inputs": [],
      "name": "swapAndLiquifyEnabled",
      "outputs": [
        {
          "internalType": "bool",
          "name": "",
          "type": "bool"
        }
      ],
      "stateMutability": "view",
      "type": "function",
      "constant": true
    },
    {
      "inputs": [
        {
          "internalType": "address",
          "name": "newOwner",
          "type": "address"
        }
      ],
      "name": "transferOwnership",
      "outputs": [],
      "stateMutability": "nonpayable",
      "type": "function"
    },
    {
      "inputs": [],
      "name": "uniswapV2Pair",
      "outputs": [
        {
          "internalType": "address",
          "name": "",
          "type": "address"
        }
      ],
      "stateMutability": "view",
      "type": "function",
      "constant": true
    },
    {
      "inputs": [],
      "name": "uniswapV2Router",
      "outputs": [
        {
          "internalType": "contract IUniswapV2Router02",
          "name": "",
          "type": "address"
        }
      ],
      "stateMutability": "view",
      "type": "function",
      "constant": true
    },
    {
      "stateMutability": "payable",
      "type": "receive",
      "payable": true
    },
    {
      "inputs": [],
      "name": "init",
      "outputs": [],
      "stateMutability": "nonpayable",
      "type": "function"
    },
    {
      "inputs": [],
      "name": "name",
      "outputs": [
        {
          "internalType": "string",
          "name": "",
          "type": "string"
        }
      ],
      "stateMutability": "view",
      "type": "function",
      "constant": true
    },
    {
      "inputs": [],
      "name": "symbol",
      "outputs": [
        {
          "internalType": "string",
          "name": "",
          "type": "string"
        }
      ],
      "stateMutability": "view",
      "type": "function",
      "constant": true
    },
    {
      "inputs": [],
      "name": "decimals",
      "outputs": [
        {
          "internalType": "uint8",
          "name": "",
          "type": "uint8"
        }
      ],
      "stateMutability": "view",
      "type": "function",
      "constant": true
    },
    {
      "inputs": [],
      "name": "totalSupply",
      "outputs": [
        {
          "internalType": "uint256",
          "name": "",
          "type": "uint256"
        }
      ],
      "stateMutability": "view",
      "type": "function",
      "constant": true
    },
    {
      "inputs": [
        {
          "internalType": "address",
          "name": "account",
          "type": "address"
        }
      ],
      "name": "balanceOf",
      "outputs": [
        {
          "internalType": "uint256",
          "name": "",
          "type": "uint256"
        }
      ],
      "stateMutability": "view",
      "type": "function",
      "constant": true
    },
    {
      "inputs": [
        {
          "internalType": "address",
          "name": "recipient",
          "type": "address"
        },
        {
          "internalType": "uint256",
          "name": "amount",
          "type": "uint256"
        }
      ],
      "name": "transfer",
      "outputs": [
        {
          "internalType": "bool",
          "name": "",
          "type": "bool"
        }
      ],
      "stateMutability": "nonpayable",
      "type": "function"
    },
    {
      "inputs": [
        {
          "internalType": "address",
          "name": "owner",
          "type": "address"
        },
        {
          "internalType": "address",
          "name": "spender",
          "type": "address"
        }
      ],
      "name": "allowance",
      "outputs": [
        {
          "internalType": "uint256",
          "name": "",
          "type": "uint256"
        }
      ],
      "stateMutability": "view",
      "type": "function",
      "constant": true
    },
    {
      "inputs": [
        {
          "internalType": "address",
          "name": "spender",
          "type": "address"
        },
        {
          "internalType": "uint256",
          "name": "amount",
          "type": "uint256"
        }
      ],
      "name": "approve",
      "outputs": [
        {
          "internalType": "bool",
          "name": "",
          "type": "bool"
        }
      ],
      "stateMutability": "nonpayable",
      "type": "function"
    },
    {
      "inputs": [
        {
          "internalType": "address",
          "name": "sender",
          "type": "address"
        },
        {
          "internalType": "address",
          "name": "recipient",
          "type": "address"
        },
        {
          "internalType": "uint256",
          "name": "amount",
          "type": "uint256"
        }
      ],
      "name": "transferFrom",
      "outputs": [
        {
          "internalType": "bool",
          "name": "",
          "type": "bool"
        }
      ],
      "stateMutability": "nonpayable",
      "type": "function"
    },
    {
      "inputs": [
        {
          "internalType": "address",
          "name": "spender",
          "type": "address"
        },
        {
          "internalType": "uint256",
          "name": "addedValue",
          "type": "uint256"
        }
      ],
      "name": "increaseAllowance",
      "outputs": [
        {
          "internalType": "bool",
          "name": "",
          "type": "bool"
        }
      ],
      "stateMutability": "nonpayable",
      "type": "function"
    },
    {
      "inputs": [
        {
          "internalType": "address",
          "name": "spender",
          "type": "address"
        },
        {
          "internalType": "uint256",
          "name": "subtractedValue",
          "type": "uint256"
        }
      ],
      "name": "decreaseAllowance",
      "outputs": [
        {
          "internalType": "bool",
          "name": "",
          "type": "bool"
        }
      ],
      "stateMutability": "nonpayable",
      "type": "function"
    },
    {
      "inputs": [
        {
          "internalType": "address",
          "name": "account",
          "type": "address"
        }
      ],
      "name": "isExcluded",
      "outputs": [
        {
          "internalType": "bool",
          "name": "",
          "type": "bool"
        }
      ],
      "stateMutability": "view",
      "type": "function",
      "constant": true
    },
    {
      "inputs": [
        {
          "internalType": "uint256",
          "name": "tokenAmount",
          "type": "uint256"
        },
        {
          "internalType": "bool",
          "name": "deductTransferFee",
          "type": "bool"
        }
      ],
      "name": "reflectionFromToken",
      "outputs": [
        {
          "internalType": "uint256",
          "name": "",
          "type": "uint256"
        }
      ],
      "stateMutability": "view",
      "type": "function",
      "constant": true
    },
    {
      "inputs": [
        {
          "internalType": "uint256",
          "name": "reflectionAmount",
          "type": "uint256"
        }
      ],
      "name": "tokenFromReflection",
      "outputs": [
        {
          "internalType": "uint256",
          "name": "",
          "type": "uint256"
        }
      ],
      "stateMutability": "view",
      "type": "function",
      "constant": true
    },
    {
      "inputs": [
        {
          "internalType": "address",
          "name": "account",
          "type": "address"
        }
      ],
      "name": "excludeAccount",
      "outputs": [],
      "stateMutability": "nonpayable",
      "type": "function"
    },
    {
      "inputs": [
        {
          "internalType": "address",
          "name": "account",
          "type": "address"
        }
      ],
      "name": "includeAccount",
      "outputs": [],
      "stateMutability": "nonpayable",
      "type": "function"
    },
    {
      "inputs": [
        {
          "internalType": "address",
          "name": "pair",
          "type": "address"
        }
      ],
      "name": "setPair",
      "outputs": [],
      "stateMutability": "nonpayable",
      "type": "function"
    },
    {
      "inputs": [
        {
          "internalType": "address",
          "name": "account",
          "type": "address"
        }
      ],
      "name": "setMarketingWallet",
      "outputs": [],
      "stateMutability": "nonpayable",
      "type": "function"
    },
    {
      "inputs": [
        {
          "internalType": "address",
          "name": "account",
          "type": "address"
        }
      ],
      "name": "setCharityWallet",
      "outputs": [],
      "stateMutability": "nonpayable",
      "type": "function"
    },
    {
      "inputs": [
        {
          "internalType": "address",
          "name": "account",
          "type": "address"
        },
        {
          "internalType": "bool",
          "name": "value",
          "type": "bool"
        }
      ],
      "name": "setTaxless",
      "outputs": [],
      "stateMutability": "nonpayable",
      "type": "function"
    },
    {
      "inputs": [
        {
          "internalType": "bool",
          "name": "enabled",
          "type": "bool"
        }
      ],
      "name": "setSwapAndLiquifyEnabled",
      "outputs": [],
      "stateMutability": "nonpayable",
      "type": "function"
    },
    {
      "inputs": [
        {
          "internalType": "bool",
          "name": "value",
          "type": "bool"
        }
      ],
      "name": "setTaxActive",
      "outputs": [],
      "stateMutability": "nonpayable",
      "type": "function"
    },
    {
      "inputs": [
        {
          "internalType": "uint256",
          "name": "fee",
          "type": "uint256"
        }
      ],
      "name": "setTaxFee",
      "outputs": [],
      "stateMutability": "nonpayable",
      "type": "function"
    },
    {
      "inputs": [
        {
          "internalType": "uint256",
          "name": "fee",
          "type": "uint256"
        }
      ],
      "name": "setBurnFee",
      "outputs": [],
      "stateMutability": "nonpayable",
      "type": "function"
    },
    {
      "inputs": [
        {
          "internalType": "uint256",
          "name": "fee",
          "type": "uint256"
        }
      ],
      "name": "setLiquidityFee",
      "outputs": [],
      "stateMutability": "nonpayable",
      "type": "function"
    },
    {
      "inputs": [
        {
          "internalType": "uint256",
          "name": "fee",
          "type": "uint256"
        }
      ],
      "name": "setMarketingFee",
      "outputs": [],
      "stateMutability": "nonpayable",
      "type": "function"
    },
    {
      "inputs": [
        {
          "internalType": "uint256",
          "name": "fee",
          "type": "uint256"
        }
      ],
      "name": "setCharityFee",
      "outputs": [],
      "stateMutability": "nonpayable",
      "type": "function"
    },
    {
      "inputs": [
        {
          "internalType": "uint256",
          "name": "amount",
          "type": "uint256"
        }
      ],
      "name": "setMaxTxAmount",
      "outputs": [],
      "stateMutability": "nonpayable",
      "type": "function"
    },
    {
      "inputs": [
        {
          "internalType": "uint256",
          "name": "amount",
          "type": "uint256"
        }
      ],
      "name": "setMinTokensBeforeSwap",
      "outputs": [],
      "stateMutability": "nonpayable",
      "type": "function"
    }
  ],
  "bytecode": "0x60806040526040518060400160405280600e81526020017f5061777468657265756d54657374000000000000000000000000000000000000815250600190805190602001906200005192919062000443565b506040518060400160405280600981526020017f5041575448544553540000000000000000000000000000000000000000000000815250600290805190602001906200009f92919062000443565b506009600360006101000a81548160ff021916908360ff160217905550670de0b6b3a764000060075560075460001981620000d657fe5b06600019036008556002600c5560c8600d556064600e556000600f55606460105560c86011556001601860146101000a81548160ff0219169083151502179055506001601860166101000a81548160ff0219169083151502179055506007546019556509184e72a000601a553480156200014f57600080fd5b506000620001626200043b60201b60201c565b9050806000806101000a81548173ffffffffffffffffffffffffffffffffffffffff021916908373ffffffffffffffffffffffffffffffffffffffff1602179055508073ffffffffffffffffffffffffffffffffffffffff16600073ffffffffffffffffffffffffffffffffffffffff167f8be0079c531659141344cd1fd0a4f28419497f9722a3daafe3b4186f6b6457e060405160405180910390a35073971db08176bba44e7d5d0733d9f1127684033e47601760006101000a81548173ffffffffffffffffffffffffffffffffffffffff021916908373ffffffffffffffffffffffffffffffffffffffff16021790555073af284efd8c649522120a05bfeeb36f2b6e7c970c601860006101000a81548173ffffffffffffffffffffffffffffffffffffffff021916908373ffffffffffffffffffffffffffffffffffffffff160217905550600160096000620002c06200043b60201b60201c565b73ffffffffffffffffffffffffffffffffffffffff1673ffffffffffffffffffffffffffffffffffffffff16815260200190815260200160002060006101000a81548160ff0219169083151502179055506001600960003073ffffffffffffffffffffffffffffffffffffffff1673ffffffffffffffffffffffffffffffffffffffff16815260200190815260200160002060006101000a81548160ff02191690831515021790555060085460046000620003806200043b60201b60201c565b73ffffffffffffffffffffffffffffffffffffffff1673ffffffffffffffffffffffffffffffffffffffff16815260200190815260200160002081905550620003ce6200043b60201b60201c565b73ffffffffffffffffffffffffffffffffffffffff16600073ffffffffffffffffffffffffffffffffffffffff167fddf252ad1be2c89b69c2b068fc378daa952ba7f163c4a11628f55a4df523b3ef6007546040518082815260200191505060405180910390a3620004e9565b600033905090565b828054600181600116156101000203166002900490600052602060002090601f016020900481019282601f106200048657805160ff1916838001178555620004b7565b82800160010185558215620004b7579182015b82811115620004b657825182559160200191906001019062000499565b5b509050620004c69190620004ca565b5090565b5b80821115620004e5576000816000905550600101620004cb565b5090565b61543f80620004f96000396000f3fe6080604052600436106103035760003560e01c8063625e764c11610190578063a457c2d7116100dc578063dd62ed3e11610095578063ec28438a1161006f578063ec28438a14611000578063f2cc0c181461103b578063f2fde38b1461108c578063f84354f1146110dd5761030a565b8063dd62ed3e14610f39578063e1c7392a14610fbe578063e5d41c6b14610fd55761030a565b8063a457c2d714610d4d578063a9059cbb14610dbe578063c0b0fda214610e2f578063c4081a4c14610e5a578063c49b9a8014610e95578063cba0e99614610ed25761030a565b80637fd7e031116101495780638da5cb5b116101235780638da5cb5b14610c2457806395d89b4114610c6557806398a0dd0914610cf55780639d46cf8a14610d225761030a565b80637fd7e03114610b7d5780638187f51614610ba85780638c0b5e2214610bf95761030a565b8063625e764c14610a195780636bc87c3a14610a5457806370a0823114610a7f578063715018a614610ae457806375f0a87414610afb5780637b20876914610b3c5761030a565b8063355bc60b1161024f5780634549b0391161020857806349bd5a5e116101e257806349bd5a5e1461091f5780634a74bb02146109605780634bf2c7c91461098d5780635d098b38146109c85761030a565b80634549b0391461082c57806347f2dc5b1461088757806348a46473146108e45761030a565b8063355bc60b146106d4578063357bf15c146106ff57806335837f9e1461073a57806339509351146107655780633b124fe7146107d657806340f8007a146108015761030a565b806320c7c596116102bc5780632d838119116102965780632d838119146105c95780632ffc16281461061857806330563bd714610655578063313ce567146106a65761030a565b806320c7c596146104d257806322976e0d1461050d57806323b872dd146105385761030a565b806306fdde031461030f578063095ea7b31461039f5780630d9a5219146104105780631694505e1461043b57806318160ddd1461047c57806319db457d146104a75761030a565b3661030a57005b600080fd5b34801561031b57600080fd5b5061032461112e565b6040518080602001828103825283818151815260200191508051906020019080838360005b83811015610364578082015181840152602081019050610349565b50505050905090810190601f1680156103915780820380516001836020036101000a031916815260200191505b509250505060405180910390f35b3480156103ab57600080fd5b506103f8600480360360408110156103c257600080fd5b81019080803573ffffffffffffffffffffffffffffffffffffffff169060200190929190803590602001909291905050506111d0565b60405180821515815260200191505060405180910390f35b34801561041c57600080fd5b506104256111ee565b6040518082815260200191505060405180910390f35b34801561044757600080fd5b506104506111f4565b604051808273ffffffffffffffffffffffffffffffffffffffff16815260200191505060405180910390f35b34801561048857600080fd5b5061049161121a565b6040518082815260200191505060405180910390f35b3480156104b357600080fd5b506104bc611224565b6040518082815260200191505060405180910390f35b3480156104de57600080fd5b5061050b600480360360208110156104f557600080fd5b810190808035906020019092919050505061122a565b005b34801561051957600080fd5b506105226112fc565b6040518082815260200191505060405180910390f35b34801561054457600080fd5b506105b16004803603606081101561055b57600080fd5b81019080803573ffffffffffffffffffffffffffffffffffffffff169060200190929190803573ffffffffffffffffffffffffffffffffffffffff16906020019092919080359060200190929190505050611302565b60405180821515815260200191505060405180910390f35b3480156105d557600080fd5b50610602600480360360208110156105ec57600080fd5b81019080803590602001909291905050506113db565b6040518082815260200191505060405180910390f35b34801561062457600080fd5b506106536004803603602081101561063b57600080fd5b8101908080351515906020019092919050505061145f565b005b34801561066157600080fd5b506106a46004803603602081101561067857600080fd5b81019080803573ffffffffffffffffffffffffffffffffffffffff169060200190929190505050611544565b005b3480156106b257600080fd5b506106bb611650565b604051808260ff16815260200191505060405180910390f35b3480156106e057600080fd5b506106e9611667565b6040518082815260200191505060405180910390f35b34801561070b57600080fd5b506107386004803603602081101561072257600080fd5b810190808035906020019092919050505061166d565b005b34801561074657600080fd5b5061074f61173f565b6040518082815260200191505060405180910390f35b34801561077157600080fd5b506107be6004803603604081101561078857600080fd5b81019080803573ffffffffffffffffffffffffffffffffffffffff16906020019092919080359060200190929190505050611745565b60405180821515815260200191505060405180910390f35b3480156107e257600080fd5b506107eb6117f8565b6040518082815260200191505060405180910390f35b34801561080d57600080fd5b506108166117fe565b6040518082815260200191505060405180910390f35b34801561083857600080fd5b506108716004803603604081101561084f57600080fd5b8101908080359060200190929190803515159060200190929190505050611804565b6040518082815260200191505060405180910390f35b34801561089357600080fd5b506108e2600480360360408110156108aa57600080fd5b81019080803573ffffffffffffffffffffffffffffffffffffffff169060200190929190803515159060200190929190505050611907565b005b3480156108f057600080fd5b5061091d6004803603602081101561090757600080fd5b8101908080359060200190929190505050611a2a565b005b34801561092b57600080fd5b50610934611afc565b604051808273ffffffffffffffffffffffffffffffffffffffff16815260200191505060405180910390f35b34801561096c57600080fd5b50610975611b22565b60405180821515815260200191505060405180910390f35b34801561099957600080fd5b506109c6600480360360208110156109b057600080fd5b8101908080359060200190929190505050611b35565b005b3480156109d457600080fd5b50610a17600480360360208110156109eb57600080fd5b81019080803573ffffffffffffffffffffffffffffffffffffffff169060200190929190505050611c07565b005b348015610a2557600080fd5b50610a5260048036036020811015610a3c57600080fd5b8101908080359060200190929190505050611d13565b005b348015610a6057600080fd5b50610a69611de5565b6040518082815260200191505060405180910390f35b348015610a8b57600080fd5b50610ace60048036036020811015610aa257600080fd5b81019080803573ffffffffffffffffffffffffffffffffffffffff169060200190929190505050611deb565b6040518082815260200191505060405180910390f35b348015610af057600080fd5b50610af9611ed6565b005b348015610b0757600080fd5b50610b1061205c565b604051808273ffffffffffffffffffffffffffffffffffffffff16815260200191505060405180910390f35b348015610b4857600080fd5b50610b51612082565b604051808273ffffffffffffffffffffffffffffffffffffffff16815260200191505060405180910390f35b348015610b8957600080fd5b50610b926120a8565b6040518082815260200191505060405180910390f35b348015610bb457600080fd5b50610bf760048036036020811015610bcb57600080fd5b81019080803573ffffffffffffffffffffffffffffffffffffffff1690602001909291905050506120ae565b005b348015610c0557600080fd5b50610c0e6121ba565b6040518082815260200191505060405180910390f35b348015610c3057600080fd5b50610c396121c0565b604051808273ffffffffffffffffffffffffffffffffffffffff16815260200191505060405180910390f35b348015610c7157600080fd5b50610c7a6121e9565b6040518080602001828103825283818151815260200191508051906020019080838360005b83811015610cba578082015181840152602081019050610c9f565b50505050905090810190601f168015610ce75780820380516001836020036101000a031916815260200191505b509250505060405180910390f35b348015610d0157600080fd5b50610d0a61228b565b60405180821515815260200191505060405180910390f35b348015610d2e57600080fd5b50610d3761229e565b6040518082815260200191505060405180910390f35b348015610d5957600080fd5b50610da660048036036040811015610d7057600080fd5b81019080803573ffffffffffffffffffffffffffffffffffffffff169060200190929190803590602001909291905050506122a4565b60405180821515815260200191505060405180910390f35b348015610dca57600080fd5b50610e1760048036036040811015610de157600080fd5b81019080803573ffffffffffffffffffffffffffffffffffffffff16906020019092919080359060200190929190505050612371565b60405180821515815260200191505060405180910390f35b348015610e3b57600080fd5b50610e4461238f565b6040518082815260200191505060405180910390f35b348015610e6657600080fd5b50610e9360048036036020811015610e7d57600080fd5b8101908080359060200190929190505050612395565b005b348015610ea157600080fd5b50610ed060048036036020811015610eb857600080fd5b81019080803515159060200190929190505050612467565b005b348015610ede57600080fd5b50610f2160048036036020811015610ef557600080fd5b81019080803573ffffffffffffffffffffffffffffffffffffffff169060200190929190505050612585565b60405180821515815260200191505060405180910390f35b348015610f4557600080fd5b50610fa860048036036040811015610f5c57600080fd5b81019080803573ffffffffffffffffffffffffffffffffffffffff169060200190929190803573ffffffffffffffffffffffffffffffffffffffff1690602001909291905050506125db565b6040518082815260200191505060405180910390f35b348015610fca57600080fd5b50610fd3612662565b005b348015610fe157600080fd5b50610fea612989565b6040518082815260200191505060405180910390f35b34801561100c57600080fd5b506110396004803603602081101561102357600080fd5b810190808035906020019092919050505061298f565b005b34801561104757600080fd5b5061108a6004803603602081101561105e57600080fd5b81019080803573ffffffffffffffffffffffffffffffffffffffff169060200190929190505050612a61565b005b34801561109857600080fd5b506110db600480360360208110156110af57600080fd5b81019080803573ffffffffffffffffffffffffffffffffffffffff169060200190929190505050612e05565b005b3480156110e957600080fd5b5061112c6004803603602081101561110057600080fd5b81019080803573ffffffffffffffffffffffffffffffffffffffff169060200190929190505050613010565b005b606060018054600181600116156101000203166002900480601f0160208091040260200160405190810160405280929190818152602001828054600181600116156101000203166002900480156111c65780601f1061119b576101008083540402835291602001916111c6565b820191906000526020600020905b8154815290600101906020018083116111a957829003601f168201915b5050505050905090565b60006111e46111dd61337d565b8484613385565b6001905092915050565b60135481565b601b60009054906101000a900473ffffffffffffffffffffffffffffffffffffffff1681565b6000600754905090565b600c5481565b61123261337d565b73ffffffffffffffffffffffffffffffffffffffff1660008054906101000a900473ffffffffffffffffffffffffffffffffffffffff1673ffffffffffffffffffffffffffffffffffffffff16146112f2576040517f08c379a00000000000000000000000000000000000000000000000000000000081526004018080602001828103825260208152602001807f4f776e61626c653a2063616c6c6572206973206e6f7420746865206f776e657281525060200191505060405180910390fd5b8060118190555050565b60105481565b600061130f84848461357c565b6113d08461131b61337d565b6113cb8560405180606001604052806028815260200161530060289139600660008b73ffffffffffffffffffffffffffffffffffffffff1673ffffffffffffffffffffffffffffffffffffffff168152602001908152602001600020600061138161337d565b73ffffffffffffffffffffffffffffffffffffffff1673ffffffffffffffffffffffffffffffffffffffff16815260200190815260200160002054613c979092919063ffffffff16565b613385565b600190509392505050565b6000600854821115611438576040517f08c379a000000000000000000000000000000000000000000000000000000000815260040180806020018281038252602a81526020018061526d602a913960400191505060405180910390fd5b6000611442613d57565b9050611457818461401290919063ffffffff16565b915050919050565b61146761337d565b73ffffffffffffffffffffffffffffffffffffffff1660008054906101000a900473ffffffffffffffffffffffffffffffffffffffff1673ffffffffffffffffffffffffffffffffffffffff1614611527576040517f08c379a00000000000000000000000000000000000000000000000000000000081526004018080602001828103825260208152602001807f4f776e61626c653a2063616c6c6572206973206e6f7420746865206f776e657281525060200191505060405180910390fd5b80601860146101000a81548160ff02191690831515021790555050565b61154c61337d565b73ffffffffffffffffffffffffffffffffffffffff1660008054906101000a900473ffffffffffffffffffffffffffffffffffffffff1673ffffffffffffffffffffffffffffffffffffffff161461160c576040517f08c379a00000000000000000000000000000000000000000000000000000000081526004018080602001828103825260208152602001807f4f776e61626c653a2063616c6c6572206973206e6f7420746865206f776e657281525060200191505060405180910390fd5b80601860006101000a81548173ffffffffffffffffffffffffffffffffffffffff021916908373ffffffffffffffffffffffffffffffffffffffff16021790555050565b6000600360009054906101000a900460ff16905090565b60125481565b61167561337d565b73ffffffffffffffffffffffffffffffffffffffff1660008054906101000a900473ffffffffffffffffffffffffffffffffffffffff1673ffffffffffffffffffffffffffffffffffffffff1614611735576040517f08c379a00000000000000000000000000000000000000000000000000000000081526004018080602001828103825260208152602001807f4f776e61626c653a2063616c6c6572206973206e6f7420746865206f776e657281525060200191505060405180910390fd5b80600e8190555050565b60165481565b60006117ee61175261337d565b846117e9856006600061176361337d565b73ffffffffffffffffffffffffffffffffffffffff1673ffffffffffffffffffffffffffffffffffffffff16815260200190815260200160002060008973ffffffffffffffffffffffffffffffffffffffff1673ffffffffffffffffffffffffffffffffffffffff1681526020019081526020016000205461405c90919063ffffffff16565b613385565b6001905092915050565b600d5481565b60115481565b600060075483111561187e576040517f08c379a000000000000000000000000000000000000000000000000000000000815260040180806020018281038252601f8152602001807f416d6f756e74206d757374206265206c657373207468616e20737570706c790081525060200191505060405180910390fd5b816118a45761189d61188e613d57565b846140e490919063ffffffff16565b9050611901565b6118fe6118af613d57565b6118f06118e16002600c54600a0a016118d3600d54896140e490919063ffffffff16565b61401290919063ffffffff16565b8661416a90919063ffffffff16565b6140e490919063ffffffff16565b90505b92915050565b61190f61337d565b73ffffffffffffffffffffffffffffffffffffffff1660008054906101000a900473ffffffffffffffffffffffffffffffffffffffff1673ffffffffffffffffffffffffffffffffffffffff16146119cf576040517f08c379a00000000000000000000000000000000000000000000000000000000081526004018080602001828103825260208152602001807f4f776e61626c653a2063616c6c6572206973206e6f7420746865206f776e657281525060200191505060405180910390fd5b80600960008473ffffffffffffffffffffffffffffffffffffffff1673ffffffffffffffffffffffffffffffffffffffff16815260200190815260200160002060006101000a81548160ff0219169083151502179055505050565b611a3261337d565b73ffffffffffffffffffffffffffffffffffffffff1660008054906101000a900473ffffffffffffffffffffffffffffffffffffffff1673ffffffffffffffffffffffffffffffffffffffff1614611af2576040517f08c379a00000000000000000000000000000000000000000000000000000000081526004018080602001828103825260208152602001807f4f776e61626c653a2063616c6c6572206973206e6f7420746865206f776e657281525060200191505060405180910390fd5b80601a8190555050565b601c60009054906101000a900473ffffffffffffffffffffffffffffffffffffffff1681565b601860169054906101000a900460ff1681565b611b3d61337d565b73ffffffffffffffffffffffffffffffffffffffff1660008054906101000a900473ffffffffffffffffffffffffffffffffffffffff1673ffffffffffffffffffffffffffffffffffffffff1614611bfd576040517f08c379a00000000000000000000000000000000000000000000000000000000081526004018080602001828103825260208152602001807f4f776e61626c653a2063616c6c6572206973206e6f7420746865206f776e657281525060200191505060405180910390fd5b80600f8190555050565b611c0f61337d565b73ffffffffffffffffffffffffffffffffffffffff1660008054906101000a900473ffffffffffffffffffffffffffffffffffffffff1673ffffffffffffffffffffffffffffffffffffffff1614611ccf576040517f08c379a00000000000000000000000000000000000000000000000000000000081526004018080602001828103825260208152602001807f4f776e61626c653a2063616c6c6572206973206e6f7420746865206f776e657281525060200191505060405180910390fd5b80601760006101000a81548173ffffffffffffffffffffffffffffffffffffffff021916908373ffffffffffffffffffffffffffffffffffffffff16021790555050565b611d1b61337d565b73ffffffffffffffffffffffffffffffffffffffff1660008054906101000a900473ffffffffffffffffffffffffffffffffffffffff1673ffffffffffffffffffffffffffffffffffffffff1614611ddb576040517f08c379a00000000000000000000000000000000000000000000000000000000081526004018080602001828103825260208152602001807f4f776e61626c653a2063616c6c6572206973206e6f7420746865206f776e657281525060200191505060405180910390fd5b8060108190555050565b600e5481565b6000600a60008373ffffffffffffffffffffffffffffffffffffffff1673ffffffffffffffffffffffffffffffffffffffff16815260200190815260200160002060009054906101000a900460ff1615611e8657600560008373ffffffffffffffffffffffffffffffffffffffff1673ffffffffffffffffffffffffffffffffffffffff168152602001908152602001600020549050611ed1565b611ece600460008473ffffffffffffffffffffffffffffffffffffffff1673ffffffffffffffffffffffffffffffffffffffff168152602001908152602001600020546113db565b90505b919050565b611ede61337d565b73ffffffffffffffffffffffffffffffffffffffff1660008054906101000a900473ffffffffffffffffffffffffffffffffffffffff1673ffffffffffffffffffffffffffffffffffffffff1614611f9e576040517f08c379a00000000000000000000000000000000000000000000000000000000081526004018080602001828103825260208152602001807f4f776e61626c653a2063616c6c6572206973206e6f7420746865206f776e657281525060200191505060405180910390fd5b600073ffffffffffffffffffffffffffffffffffffffff1660008054906101000a900473ffffffffffffffffffffffffffffffffffffffff1673ffffffffffffffffffffffffffffffffffffffff167f8be0079c531659141344cd1fd0a4f28419497f9722a3daafe3b4186f6b6457e060405160405180910390a360008060006101000a81548173ffffffffffffffffffffffffffffffffffffffff021916908373ffffffffffffffffffffffffffffffffffffffff160217905550565b601760009054906101000a900473ffffffffffffffffffffffffffffffffffffffff1681565b601860009054906101000a900473ffffffffffffffffffffffffffffffffffffffff1681565b60155481565b6120b661337d565b73ffffffffffffffffffffffffffffffffffffffff1660008054906101000a900473ffffffffffffffffffffffffffffffffffffffff1673ffffffffffffffffffffffffffffffffffffffff1614612176576040517f08c379a00000000000000000000000000000000000000000000000000000000081526004018080602001828103825260208152602001807f4f776e61626c653a2063616c6c6572206973206e6f7420746865206f776e657281525060200191505060405180910390fd5b80601c60006101000a81548173ffffffffffffffffffffffffffffffffffffffff021916908373ffffffffffffffffffffffffffffffffffffffff16021790555050565b60195481565b60008060009054906101000a900473ffffffffffffffffffffffffffffffffffffffff16905090565b606060028054600181600116156101000203166002900480601f0160208091040260200160405190810160405280929190818152602001828054600181600116156101000203166002900480156122815780601f1061225657610100808354040283529160200191612281565b820191906000526020600020905b81548152906001019060200180831161226457829003601f168201915b5050505050905090565b601860149054906101000a900460ff1681565b60145481565b60006123676122b161337d565b84612362856040518060600160405280602581526020016153e560259139600660006122db61337d565b73ffffffffffffffffffffffffffffffffffffffff1673ffffffffffffffffffffffffffffffffffffffff16815260200190815260200160002060008a73ffffffffffffffffffffffffffffffffffffffff1673ffffffffffffffffffffffffffffffffffffffff16815260200190815260200160002054613c979092919063ffffffff16565b613385565b6001905092915050565b600061238561237e61337d565b848461357c565b6001905092915050565b600f5481565b61239d61337d565b73ffffffffffffffffffffffffffffffffffffffff1660008054906101000a900473ffffffffffffffffffffffffffffffffffffffff1673ffffffffffffffffffffffffffffffffffffffff161461245d576040517f08c379a00000000000000000000000000000000000000000000000000000000081526004018080602001828103825260208152602001807f4f776e61626c653a2063616c6c6572206973206e6f7420746865206f776e657281525060200191505060405180910390fd5b80600d8190555050565b61246f61337d565b73ffffffffffffffffffffffffffffffffffffffff1660008054906101000a900473ffffffffffffffffffffffffffffffffffffffff1673ffffffffffffffffffffffffffffffffffffffff161461252f576040517f08c379a00000000000000000000000000000000000000000000000000000000081526004018080602001828103825260208152602001807f4f776e61626c653a2063616c6c6572206973206e6f7420746865206f776e657281525060200191505060405180910390fd5b80601860166101000a81548160ff0219169083151502179055507f53726dfcaf90650aa7eb35524f4d3220f07413c8d6cb404cc8c18bf5591bc1598160405180821515815260200191505060405180910390a150565b6000600a60008373ffffffffffffffffffffffffffffffffffffffff1673ffffffffffffffffffffffffffffffffffffffff16815260200190815260200160002060009054906101000a900460ff169050919050565b6000600660008473ffffffffffffffffffffffffffffffffffffffff1673ffffffffffffffffffffffffffffffffffffffff16815260200190815260200160002060008373ffffffffffffffffffffffffffffffffffffffff1673ffffffffffffffffffffffffffffffffffffffff16815260200190815260200160002054905092915050565b61266a61337d565b73ffffffffffffffffffffffffffffffffffffffff1660008054906101000a900473ffffffffffffffffffffffffffffffffffffffff1673ffffffffffffffffffffffffffffffffffffffff161461272a576040517f08c379a00000000000000000000000000000000000000000000000000000000081526004018080602001828103825260208152602001807f4f776e61626c653a2063616c6c6572206973206e6f7420746865206f776e657281525060200191505060405180910390fd5b6000737a250d5630b4cf539739df2c5dacb4c659f2488d90508073ffffffffffffffffffffffffffffffffffffffff1663c45a01556040518163ffffffff1660e01b815260040160206040518083038186803b15801561278957600080fd5b505afa15801561279d573d6000803e3d6000fd5b505050506040513d60208110156127b357600080fd5b810190808051906020019092919050505073ffffffffffffffffffffffffffffffffffffffff1663c9c65396308373ffffffffffffffffffffffffffffffffffffffff1663ad5c46486040518163ffffffff1660e01b815260040160206040518083038186803b15801561282657600080fd5b505afa15801561283a573d6000803e3d6000fd5b505050506040513d602081101561285057600080fd5b81019080805190602001909291905050506040518363ffffffff1660e01b8152600401808373ffffffffffffffffffffffffffffffffffffffff1681526020018273ffffffffffffffffffffffffffffffffffffffff16815260200192505050602060405180830381600087803b1580156128ca57600080fd5b505af11580156128de573d6000803e3d6000fd5b505050506040513d60208110156128f457600080fd5b8101908080519060200190929190505050601c60006101000a81548173ffffffffffffffffffffffffffffffffffffffff021916908373ffffffffffffffffffffffffffffffffffffffff16021790555080601b60006101000a81548173ffffffffffffffffffffffffffffffffffffffff021916908373ffffffffffffffffffffffffffffffffffffffff16021790555050565b601a5481565b61299761337d565b73ffffffffffffffffffffffffffffffffffffffff1660008054906101000a900473ffffffffffffffffffffffffffffffffffffffff1673ffffffffffffffffffffffffffffffffffffffff1614612a57576040517f08c379a00000000000000000000000000000000000000000000000000000000081526004018080602001828103825260208152602001807f4f776e61626c653a2063616c6c6572206973206e6f7420746865206f776e657281525060200191505060405180910390fd5b8060198190555050565b612a6961337d565b73ffffffffffffffffffffffffffffffffffffffff1660008054906101000a900473ffffffffffffffffffffffffffffffffffffffff1673ffffffffffffffffffffffffffffffffffffffff1614612b29576040517f08c379a00000000000000000000000000000000000000000000000000000000081526004018080602001828103825260208152602001807f4f776e61626c653a2063616c6c6572206973206e6f7420746865206f776e657281525060200191505060405180910390fd5b601b60009054906101000a900473ffffffffffffffffffffffffffffffffffffffff1673ffffffffffffffffffffffffffffffffffffffff168173ffffffffffffffffffffffffffffffffffffffff161415612bd0576040517f08c379a00000000000000000000000000000000000000000000000000000000081526004018080602001828103825260298152602001806153516029913960400191505060405180910390fd5b600a60008273ffffffffffffffffffffffffffffffffffffffff1673ffffffffffffffffffffffffffffffffffffffff16815260200190815260200160002060009054906101000a900460ff1615612c73576040517f08c379a000000000000000000000000000000000000000000000000000000000815260040180806020018281038252602281526020018061524b6022913960400191505060405180910390fd5b6000600460008373ffffffffffffffffffffffffffffffffffffffff1673ffffffffffffffffffffffffffffffffffffffff168152602001908152602001600020541115612d4757612d03600460008373ffffffffffffffffffffffffffffffffffffffff1673ffffffffffffffffffffffffffffffffffffffff168152602001908152602001600020546113db565b600560008373ffffffffffffffffffffffffffffffffffffffff1673ffffffffffffffffffffffffffffffffffffffff168152602001908152602001600020819055505b6001600a60008373ffffffffffffffffffffffffffffffffffffffff1673ffffffffffffffffffffffffffffffffffffffff16815260200190815260200160002060006101000a81548160ff021916908315150217905550600b819080600181540180825580915050600190039060005260206000200160009091909190916101000a81548173ffffffffffffffffffffffffffffffffffffffff021916908373ffffffffffffffffffffffffffffffffffffffff16021790555050565b612e0d61337d565b73ffffffffffffffffffffffffffffffffffffffff1660008054906101000a900473ffffffffffffffffffffffffffffffffffffffff1673ffffffffffffffffffffffffffffffffffffffff1614612ecd576040517f08c379a00000000000000000000000000000000000000000000000000000000081526004018080602001828103825260208152602001807f4f776e61626c653a2063616c6c6572206973206e6f7420746865206f776e657281525060200191505060405180910390fd5b600073ffffffffffffffffffffffffffffffffffffffff168173ffffffffffffffffffffffffffffffffffffffff161415612f53576040517f08c379a00000000000000000000000000000000000000000000000000000000081526004018080602001828103825260268152602001806152976026913960400191505060405180910390fd5b8073ffffffffffffffffffffffffffffffffffffffff1660008054906101000a900473ffffffffffffffffffffffffffffffffffffffff1673ffffffffffffffffffffffffffffffffffffffff167f8be0079c531659141344cd1fd0a4f28419497f9722a3daafe3b4186f6b6457e060405160405180910390a3806000806101000a81548173ffffffffffffffffffffffffffffffffffffffff021916908373ffffffffffffffffffffffffffffffffffffffff16021790555050565b61301861337d565b73ffffffffffffffffffffffffffffffffffffffff1660008054906101000a900473ffffffffffffffffffffffffffffffffffffffff1673ffffffffffffffffffffffffffffffffffffffff16146130d8576040517f08c379a00000000000000000000000000000000000000000000000000000000081526004018080602001828103825260208152602001807f4f776e61626c653a2063616c6c6572206973206e6f7420746865206f776e657281525060200191505060405180910390fd5b600a60008273ffffffffffffffffffffffffffffffffffffffff1673ffffffffffffffffffffffffffffffffffffffff16815260200190815260200160002060009054906101000a900460ff1661317a576040517f08c379a00000000000000000000000000000000000000000000000000000000081526004018080602001828103825260228152602001806153c36022913960400191505060405180910390fd5b60005b600b80549050811015613379578173ffffffffffffffffffffffffffffffffffffffff16600b82815481106131ae57fe5b9060005260206000200160009054906101000a900473ffffffffffffffffffffffffffffffffffffffff1673ffffffffffffffffffffffffffffffffffffffff16141561336c57600b6001600b80549050038154811061320a57fe5b9060005260206000200160009054906101000a900473ffffffffffffffffffffffffffffffffffffffff16600b828154811061324257fe5b9060005260206000200160006101000a81548173ffffffffffffffffffffffffffffffffffffffff021916908373ffffffffffffffffffffffffffffffffffffffff1602179055506000600560008473ffffffffffffffffffffffffffffffffffffffff1673ffffffffffffffffffffffffffffffffffffffff168152602001908152602001600020819055506000600a60008473ffffffffffffffffffffffffffffffffffffffff1673ffffffffffffffffffffffffffffffffffffffff16815260200190815260200160002060006101000a81548160ff021916908315150217905550600b80548061333257fe5b6001900381819060005260206000200160006101000a81549073ffffffffffffffffffffffffffffffffffffffff02191690559055613379565b808060010191505061317d565b5050565b600033905090565b600073ffffffffffffffffffffffffffffffffffffffff168373ffffffffffffffffffffffffffffffffffffffff16141561340b576040517f08c379a000000000000000000000000000000000000000000000000000000000815260040180806020018281038252602481526020018061539f6024913960400191505060405180910390fd5b600073ffffffffffffffffffffffffffffffffffffffff168273ffffffffffffffffffffffffffffffffffffffff161415613491576040517f08c379a00000000000000000000000000000000000000000000000000000000081526004018080602001828103825260228152602001806152bd6022913960400191505060405180910390fd5b80600660008573ffffffffffffffffffffffffffffffffffffffff1673ffffffffffffffffffffffffffffffffffffffff16815260200190815260200160002060008473ffffffffffffffffffffffffffffffffffffffff1673ffffffffffffffffffffffffffffffffffffffff168152602001908152602001600020819055508173ffffffffffffffffffffffffffffffffffffffff168373ffffffffffffffffffffffffffffffffffffffff167f8c5be1e5ebec7d5bd14f71427d1e84f3dd0314c0f7b2291e5b200ac8c7c3b925836040518082815260200191505060405180910390a3505050565b600073ffffffffffffffffffffffffffffffffffffffff168373ffffffffffffffffffffffffffffffffffffffff161415613602576040517f08c379a000000000000000000000000000000000000000000000000000000000815260040180806020018281038252602581526020018061537a6025913960400191505060405180910390fd5b600073ffffffffffffffffffffffffffffffffffffffff168273ffffffffffffffffffffffffffffffffffffffff161415613688576040517f08c379a00000000000000000000000000000000000000000000000000000000081526004018080602001828103825260238152602001806152286023913960400191505060405180910390fd5b600081116136e1576040517f08c379a00000000000000000000000000000000000000000000000000000000081526004018080602001828103825260298152602001806153286029913960400191505060405180910390fd5b601954811115613759576040517f08c379a00000000000000000000000000000000000000000000000000000000081526004018080602001828103825260188152602001807f5472616e73666572204c696d697420657863656564656421000000000000000081525060200191505060405180910390fd5b600061376430611deb565b90506000601a548210159050601860159054906101000a900460ff1615801561378a5750805b80156137e45750601c60009054906101000a900473ffffffffffffffffffffffffffffffffffffffff1673ffffffffffffffffffffffffffffffffffffffff168573ffffffffffffffffffffffffffffffffffffffff1614155b80156137fc5750601860169054906101000a900460ff165b1561380b5761380a826141b4565b5b6000839050600061381a613d57565b9050601860149054906101000a900460ff16801561388957506009600061383f61337d565b73ffffffffffffffffffffffffffffffffffffffff1673ffffffffffffffffffffffffffffffffffffffff16815260200190815260200160002060009054906101000a900460ff16155b80156138df5750600960008773ffffffffffffffffffffffffffffffffffffffff1673ffffffffffffffffffffffffffffffffffffffff16815260200190815260200160002060009054906101000a900460ff16155b80156138f85750601860159054906101000a900460ff16155b1561390b576139088786836142d4565b91505b61396f61392182876140e490919063ffffffff16565b600460008a73ffffffffffffffffffffffffffffffffffffffff1673ffffffffffffffffffffffffffffffffffffffff1681526020019081526020016000205461416a90919063ffffffff16565b600460008973ffffffffffffffffffffffffffffffffffffffff1673ffffffffffffffffffffffffffffffffffffffff16815260200190815260200160002081905550613a166139c882846140e490919063ffffffff16565b600460008973ffffffffffffffffffffffffffffffffffffffff1673ffffffffffffffffffffffffffffffffffffffff1681526020019081526020016000205461405c90919063ffffffff16565b600460008873ffffffffffffffffffffffffffffffffffffffff1673ffffffffffffffffffffffffffffffffffffffff16815260200190815260200160002081905550600a60008873ffffffffffffffffffffffffffffffffffffffff1673ffffffffffffffffffffffffffffffffffffffff16815260200190815260200160002060009054906101000a900460ff1615613b4157613afd85600560008a73ffffffffffffffffffffffffffffffffffffffff1673ffffffffffffffffffffffffffffffffffffffff1681526020019081526020016000205461416a90919063ffffffff16565b600560008973ffffffffffffffffffffffffffffffffffffffff1673ffffffffffffffffffffffffffffffffffffffff168152602001908152602001600020819055505b600a60008773ffffffffffffffffffffffffffffffffffffffff1673ffffffffffffffffffffffffffffffffffffffff16815260200190815260200160002060009054906101000a900460ff1615613c2957613be582600560008973ffffffffffffffffffffffffffffffffffffffff1673ffffffffffffffffffffffffffffffffffffffff1681526020019081526020016000205461405c90919063ffffffff16565b600560008873ffffffffffffffffffffffffffffffffffffffff1673ffffffffffffffffffffffffffffffffffffffff168152602001908152602001600020819055505b8573ffffffffffffffffffffffffffffffffffffffff168773ffffffffffffffffffffffffffffffffffffffff167fddf252ad1be2c89b69c2b068fc378daa952ba7f163c4a11628f55a4df523b3ef846040518082815260200191505060405180910390a350505050505050565b6000838311158290613d44576040517f08c379a00000000000000000000000000000000000000000000000000000000081526004018080602001828103825283818151815260200191508051906020019080838360005b83811015613d09578082015181840152602081019050613cee565b50505050905090810190601f168015613d365780820380516001836020036101000a031916815260200191505b509250505060405180910390fd5b5060008385039050809150509392505050565b60008060085490506000600754905060005b600b80549050811015613fb8578260046000600b8481548110613d8857fe5b9060005260206000200160009054906101000a900473ffffffffffffffffffffffffffffffffffffffff1673ffffffffffffffffffffffffffffffffffffffff1673ffffffffffffffffffffffffffffffffffffffff168152602001908152602001600020541180613e6f57508160056000600b8481548110613e0757fe5b9060005260206000200160009054906101000a900473ffffffffffffffffffffffffffffffffffffffff1673ffffffffffffffffffffffffffffffffffffffff1673ffffffffffffffffffffffffffffffffffffffff16815260200190815260200160002054115b15613e9557613e8b60075460085461401290919063ffffffff16565b935050505061400f565b613f1e60046000600b8481548110613ea957fe5b9060005260206000200160009054906101000a900473ffffffffffffffffffffffffffffffffffffffff1673ffffffffffffffffffffffffffffffffffffffff1673ffffffffffffffffffffffffffffffffffffffff168152602001908152602001600020548461416a90919063ffffffff16565b9250613fa960056000600b8481548110613f3457fe5b9060005260206000200160009054906101000a900473ffffffffffffffffffffffffffffffffffffffff1673ffffffffffffffffffffffffffffffffffffffff1673ffffffffffffffffffffffffffffffffffffffff168152602001908152602001600020548361416a90919063ffffffff16565b91508080600101915050613d69565b50613fd060075460085461401290919063ffffffff16565b821015613ff757613fee60075460085461401290919063ffffffff16565b9250505061400f565b61400a818361401290919063ffffffff16565b925050505b90565b600061405483836040518060400160405280601a81526020017f536166654d6174683a206469766973696f6e206279207a65726f000000000000815250614d5f565b905092915050565b6000808284019050838110156140da576040517f08c379a000000000000000000000000000000000000000000000000000000000815260040180806020018281038252601b8152602001807f536166654d6174683a206164646974696f6e206f766572666c6f77000000000081525060200191505060405180910390fd5b8091505092915050565b6000808314156140f75760009050614164565b600082840290508284828161410857fe5b041461415f576040517f08c379a00000000000000000000000000000000000000000000000000000000081526004018080602001828103825260218152602001806152df6021913960400191505060405180910390fd5b809150505b92915050565b60006141ac83836040518060400160405280601e81526020017f536166654d6174683a207375627472616374696f6e206f766572666c6f770000815250613c97565b905092915050565b6001601860156101000a81548160ff0219169083151502179055506019548111156141df5760195490505b60006141f560028361401290919063ffffffff16565b9050600061420c828461416a90919063ffffffff16565b905060003073ffffffffffffffffffffffffffffffffffffffff1631905061423383614e25565b600061425f823073ffffffffffffffffffffffffffffffffffffffff163161416a90919063ffffffff16565b905061426b83826150d9565b7f17bbfb9a6069321b6ded73bd96327c9e6b7212a5cd51ff219cd61370acafb56184828560405180848152602001838152602001828152602001935050505060405180910390a1505050506000601860156101000a81548160ff02191690831515021790555050565b6000808390506000600d54146143765760006143156002600c5401600a0a614307600d54886140e490919063ffffffff16565b61401290919063ffffffff16565b905061432a818361416a90919063ffffffff16565b915061435361434285836140e490919063ffffffff16565b60085461416a90919063ffffffff16565b60088190555061436e8160125461405c90919063ffffffff16565b601281905550505b6000600e54146145d95760006143b16002600c5401600a0a6143a3600e54886140e490919063ffffffff16565b61401290919063ffffffff16565b90506143c6818361416a90919063ffffffff16565b915061442c6143de85836140e490919063ffffffff16565b600460003073ffffffffffffffffffffffffffffffffffffffff1673ffffffffffffffffffffffffffffffffffffffff1681526020019081526020016000205461405c90919063ffffffff16565b600460003073ffffffffffffffffffffffffffffffffffffffff1673ffffffffffffffffffffffffffffffffffffffff16815260200190815260200160002081905550600a60003073ffffffffffffffffffffffffffffffffffffffff1673ffffffffffffffffffffffffffffffffffffffff16815260200190815260200160002060009054906101000a900460ff16156145575761451381600560003073ffffffffffffffffffffffffffffffffffffffff1673ffffffffffffffffffffffffffffffffffffffff1681526020019081526020016000205461405c90919063ffffffff16565b600560003073ffffffffffffffffffffffffffffffffffffffff1673ffffffffffffffffffffffffffffffffffffffff168152602001908152602001600020819055505b61456c8160145461405c90919063ffffffff16565b6014819055503073ffffffffffffffffffffffffffffffffffffffff168673ffffffffffffffffffffffffffffffffffffffff167fddf252ad1be2c89b69c2b068fc378daa952ba7f163c4a11628f55a4df523b3ef836040518082815260200191505060405180910390a3505b6000600f54146146f65760006146146002600c5401600a0a614606600f54886140e490919063ffffffff16565b61401290919063ffffffff16565b9050614629818361416a90919063ffffffff16565b91506146408160075461416a90919063ffffffff16565b60078190555061466d61465c85836140e490919063ffffffff16565b60085461416a90919063ffffffff16565b6008819055506146888160135461405c90919063ffffffff16565b601381905550600073ffffffffffffffffffffffffffffffffffffffff168673ffffffffffffffffffffffffffffffffffffffff167fddf252ad1be2c89b69c2b068fc378daa952ba7f163c4a11628f55a4df523b3ef836040518082815260200191505060405180910390a3505b600060105414614a255760006147316002600c5401600a0a614723601054886140e490919063ffffffff16565b61401290919063ffffffff16565b9050614746818361416a90919063ffffffff16565b91506147ce61475e85836140e490919063ffffffff16565b60046000601760009054906101000a900473ffffffffffffffffffffffffffffffffffffffff1673ffffffffffffffffffffffffffffffffffffffff1673ffffffffffffffffffffffffffffffffffffffff1681526020019081526020016000205461405c90919063ffffffff16565b60046000601760009054906101000a900473ffffffffffffffffffffffffffffffffffffffff1673ffffffffffffffffffffffffffffffffffffffff1673ffffffffffffffffffffffffffffffffffffffff16815260200190815260200160002081905550600a6000601760009054906101000a900473ffffffffffffffffffffffffffffffffffffffff1673ffffffffffffffffffffffffffffffffffffffff1673ffffffffffffffffffffffffffffffffffffffff16815260200190815260200160002060009054906101000a900460ff16156149815761491b8160056000601760009054906101000a900473ffffffffffffffffffffffffffffffffffffffff1673ffffffffffffffffffffffffffffffffffffffff1673ffffffffffffffffffffffffffffffffffffffff1681526020019081526020016000205461405c90919063ffffffff16565b60056000601760009054906101000a900473ffffffffffffffffffffffffffffffffffffffff1673ffffffffffffffffffffffffffffffffffffffff1673ffffffffffffffffffffffffffffffffffffffff168152602001908152602001600020819055505b6149968160155461405c90919063ffffffff16565b601581905550601760009054906101000a900473ffffffffffffffffffffffffffffffffffffffff1673ffffffffffffffffffffffffffffffffffffffff168673ffffffffffffffffffffffffffffffffffffffff167fddf252ad1be2c89b69c2b068fc378daa952ba7f163c4a11628f55a4df523b3ef836040518082815260200191505060405180910390a3505b600060115414614d54576000614a606002600c5401600a0a614a52601154886140e490919063ffffffff16565b61401290919063ffffffff16565b9050614a75818361416a90919063ffffffff16565b9150614afd614a8d85836140e490919063ffffffff16565b60046000601860009054906101000a900473ffffffffffffffffffffffffffffffffffffffff1673ffffffffffffffffffffffffffffffffffffffff1673ffffffffffffffffffffffffffffffffffffffff1681526020019081526020016000205461405c90919063ffffffff16565b60046000601860009054906101000a900473ffffffffffffffffffffffffffffffffffffffff1673ffffffffffffffffffffffffffffffffffffffff1673ffffffffffffffffffffffffffffffffffffffff16815260200190815260200160002081905550600a6000601860009054906101000a900473ffffffffffffffffffffffffffffffffffffffff1673ffffffffffffffffffffffffffffffffffffffff1673ffffffffffffffffffffffffffffffffffffffff16815260200190815260200160002060009054906101000a900460ff1615614cb057614c4a8160056000601860009054906101000a900473ffffffffffffffffffffffffffffffffffffffff1673ffffffffffffffffffffffffffffffffffffffff1673ffffffffffffffffffffffffffffffffffffffff1681526020019081526020016000205461405c90919063ffffffff16565b60056000601860009054906101000a900473ffffffffffffffffffffffffffffffffffffffff1673ffffffffffffffffffffffffffffffffffffffff1673ffffffffffffffffffffffffffffffffffffffff168152602001908152602001600020819055505b614cc58160165461405c90919063ffffffff16565b601681905550601860009054906101000a900473ffffffffffffffffffffffffffffffffffffffff1673ffffffffffffffffffffffffffffffffffffffff168673ffffffffffffffffffffffffffffffffffffffff167fddf252ad1be2c89b69c2b068fc378daa952ba7f163c4a11628f55a4df523b3ef836040518082815260200191505060405180910390a3505b809150509392505050565b60008083118290614e0b576040517f08c379a00000000000000000000000000000000000000000000000000000000081526004018080602001828103825283818151815260200191508051906020019080838360005b83811015614dd0578082015181840152602081019050614db5565b50505050905090810190601f168015614dfd5780820380516001836020036101000a031916815260200191505b509250505060405180910390fd5b506000838581614e1757fe5b049050809150509392505050565b6060600267ffffffffffffffff81118015614e3f57600080fd5b50604051908082528060200260200182016040528015614e6e5781602001602082028036833780820191505090505b5090503081600081518110614e7f57fe5b602002602001019073ffffffffffffffffffffffffffffffffffffffff16908173ffffffffffffffffffffffffffffffffffffffff1681525050601b60009054906101000a900473ffffffffffffffffffffffffffffffffffffffff1673ffffffffffffffffffffffffffffffffffffffff1663ad5c46486040518163ffffffff1660e01b815260040160206040518083038186803b158015614f2157600080fd5b505afa158015614f35573d6000803e3d6000fd5b505050506040513d6020811015614f4b57600080fd5b810190808051906020019092919050505081600181518110614f6957fe5b602002602001019073ffffffffffffffffffffffffffffffffffffffff16908173ffffffffffffffffffffffffffffffffffffffff1681525050614fd030601b60009054906101000a900473ffffffffffffffffffffffffffffffffffffffff1684613385565b601b60009054906101000a900473ffffffffffffffffffffffffffffffffffffffff1673ffffffffffffffffffffffffffffffffffffffff1663791ac9478360008430426040518663ffffffff1660e01b815260040180868152602001858152602001806020018473ffffffffffffffffffffffffffffffffffffffff168152602001838152602001828103825285818151815260200191508051906020019060200280838360005b83811015615094578082015181840152602081019050615079565b505050509050019650505050505050600060405180830381600087803b1580156150bd57600080fd5b505af11580156150d1573d6000803e3d6000fd5b505050505050565b61510630601b60009054906101000a900473ffffffffffffffffffffffffffffffffffffffff1684613385565b601b60009054906101000a900473ffffffffffffffffffffffffffffffffffffffff1673ffffffffffffffffffffffffffffffffffffffff1663f305d71982308560008030426040518863ffffffff1660e01b8152600401808773ffffffffffffffffffffffffffffffffffffffff1681526020018681526020018581526020018481526020018373ffffffffffffffffffffffffffffffffffffffff16815260200182815260200196505050505050506060604051808303818588803b1580156151d057600080fd5b505af11580156151e4573d6000803e3d6000fd5b50505050506040513d60608110156151fb57600080fd5b81019080805190602001909291908051906020019092919080519060200190929190505050505050505056fe45524332303a207472616e7366657220746f20746865207a65726f206164647265737345524332303a204163636f756e7420697320616c7265616479206578636c75646564416d6f756e74206d757374206265206c657373207468616e20746f74616c207265666c656374696f6e734f776e61626c653a206e6577206f776e657220697320746865207a65726f206164647265737345524332303a20617070726f766520746f20746865207a65726f2061646472657373536166654d6174683a206d756c7469706c69636174696f6e206f766572666c6f7745524332303a207472616e7366657220616d6f756e74206578636565647320616c6c6f77616e63655472616e7366657220616d6f756e74206d7573742062652067726561746572207468616e207a65726f45524332303a2057652063616e206e6f74206578636c75646520556e697377617020726f757465722e45524332303a207472616e736665722066726f6d20746865207a65726f206164647265737345524332303a20617070726f76652066726f6d20746865207a65726f206164647265737345524332303a204163636f756e7420697320616c726561647920696e636c7564656445524332303a2064656372656173656420616c6c6f77616e63652062656c6f77207a65726fa2646970667358221220d7eb62969aa34bf18bbedf18766649a2b9e80db5e859e9d8ba162da60c2c17f164736f6c634300060c0033",
  "immutableReferences": {},
  "source": "pragma solidity ^0.6.12;\r\n\r\nabstract contract Context {\r\n    function _msgSender() internal virtual view returns (address payable) {\r\n        return msg.sender;\r\n    }\r\n    function _msgData() internal virtual view returns (bytes memory) {\r\n        this;\r\n        return msg.data;\r\n    }\r\n}\r\n\r\ninterface IERC20 {\r\n    function totalSupply() external view returns (uint256);\r\n    function balanceOf(address account) external view returns (uint256);\r\n    function transfer(address recipient, uint256 amount)\r\n        external\r\n        returns (bool);\r\n    function allowance(address owner, address spender)\r\n        external\r\n        view\r\n        returns (uint256);\r\n    function approve(address spender, uint256 amount) external returns (bool);\r\n    function transferFrom(\r\n        address sender,\r\n        address recipient,\r\n        uint256 amount\r\n    ) external returns (bool);\r\n\r\n    event Transfer(address indexed from, address indexed to, uint256 value);\r\n    event Approval(\r\n        address indexed owner,\r\n        address indexed spender,\r\n        uint256 value\r\n    );\r\n}\r\n\r\nlibrary SafeMath {\r\n    function add(uint256 a, uint256 b) internal pure returns (uint256) {\r\n        uint256 c = a + b;\r\n        require(c >= a, \"SafeMath: addition overflow\");\r\n\r\n        return c;\r\n    }\r\n    function sub(uint256 a, uint256 b) internal pure returns (uint256) {\r\n        return sub(a, b, \"SafeMath: subtraction overflow\");\r\n    }\r\n\r\n\r\n    function sub(\r\n        uint256 a,\r\n        uint256 b,\r\n        string memory errorMessage\r\n    ) internal pure returns (uint256) {\r\n        require(b <= a, errorMessage);\r\n        uint256 c = a - b;\r\n\r\n        return c;\r\n    }\r\n\r\n    function mul(uint256 a, uint256 b) internal pure returns (uint256) {\r\n        if (a == 0) {\r\n            return 0;\r\n        }\r\n\r\n        uint256 c = a * b;\r\n        require(c / a == b, \"SafeMath: multiplication overflow\");\r\n\r\n        return c;\r\n    }\r\n\r\n\r\n    function div(uint256 a, uint256 b) internal pure returns (uint256) {\r\n        return div(a, b, \"SafeMath: division by zero\");\r\n    }\r\n\r\n\r\n    function div(\r\n        uint256 a,\r\n        uint256 b,\r\n        string memory errorMessage\r\n    ) internal pure returns (uint256) {\r\n        require(b > 0, errorMessage);\r\n        uint256 c = a / b;\r\n\r\n        return c;\r\n    }\r\n\r\n    function mod(uint256 a, uint256 b) internal pure returns (uint256) {\r\n        return mod(a, b, \"SafeMath: modulo by zero\");\r\n    }\r\n\r\n\r\n    function mod(\r\n        uint256 a,\r\n        uint256 b,\r\n        string memory errorMessage\r\n    ) internal pure returns (uint256) {\r\n        require(b != 0, errorMessage);\r\n        return a % b;\r\n    }\r\n}\r\n\r\n\r\nlibrary Address {\r\n\r\n    function isContract(address account) internal view returns (bool) {\r\n        bytes32 codehash;\r\n\r\n\r\n            bytes32 accountHash\r\n         = 0xc5d2460186f7233c927e7db2dcc703c0e500b653ca82273b7bfad8045d85a470;\r\n        assembly {\r\n            codehash := extcodehash(account)\r\n        }\r\n        return (codehash != accountHash && codehash != 0x0);\r\n    }\r\n\r\n\r\n    function sendValue(address payable recipient, uint256 amount) internal {\r\n        require(\r\n            address(this).balance >= amount,\r\n            \"Address: insufficient balance\"\r\n        );\r\n\r\n        (bool success, ) = recipient.call{value: amount}(\"\");\r\n        require(\r\n            success,\r\n            \"Address: unable to send value, recipient may have reverted\"\r\n        );\r\n    }\r\n\r\n\r\n    function functionCall(address target, bytes memory data)\r\n        internal\r\n        returns (bytes memory)\r\n    {\r\n        return functionCall(target, data, \"Address: low-level call failed\");\r\n    }\r\n\r\n    function functionCall(\r\n        address target,\r\n        bytes memory data,\r\n        string memory errorMessage\r\n    ) internal returns (bytes memory) {\r\n        return _functionCallWithValue(target, data, 0, errorMessage);\r\n    }\r\n\r\n\r\n    function functionCallWithValue(\r\n        address target,\r\n        bytes memory data,\r\n        uint256 value\r\n    ) internal returns (bytes memory) {\r\n        return\r\n            functionCallWithValue(\r\n                target,\r\n                data,\r\n                value,\r\n                \"Address: low-level call with value failed\"\r\n            );\r\n    }\r\n\r\n\r\n    function functionCallWithValue(\r\n        address target,\r\n        bytes memory data,\r\n        uint256 value,\r\n        string memory errorMessage\r\n    ) internal returns (bytes memory) {\r\n        require(\r\n            address(this).balance >= value,\r\n            \"Address: insufficient balance for call\"\r\n        );\r\n        return _functionCallWithValue(target, data, value, errorMessage);\r\n    }\r\n\r\n    function _functionCallWithValue(\r\n        address target,\r\n        bytes memory data,\r\n        uint256 weiValue,\r\n        string memory errorMessage\r\n    ) private returns (bytes memory) {\r\n        require(isContract(target), \"Address: call to non-contract\");\r\n\r\n        // solhint-disable-next-line avoid-low-level-calls\r\n        (bool success, bytes memory returndata) = target.call{value: weiValue}(\r\n            data\r\n        );\r\n        if (success) {\r\n            return returndata;\r\n        } else {\r\n            if (returndata.length > 0) {\r\n\r\n                assembly {\r\n                    let returndata_size := mload(returndata)\r\n                    revert(add(32, returndata), returndata_size)\r\n                }\r\n            } else {\r\n                revert(errorMessage);\r\n            }\r\n        }\r\n    }\r\n}\r\n\r\n\r\ncontract Ownable is Context {\r\n    address private _owner;\r\n\r\n    event OwnershipTransferred(\r\n        address indexed previousOwner,\r\n        address indexed newOwner\r\n    );\r\n\r\n\r\n    constructor() internal {\r\n        address msgSender = _msgSender();\r\n        _owner = msgSender;\r\n        emit OwnershipTransferred(address(0), msgSender);\r\n    }\r\n\r\n\r\n    function owner() public view returns (address) {\r\n        return _owner;\r\n    }\r\n\r\n    modifier onlyOwner() {\r\n        require(_owner == _msgSender(), \"Ownable: caller is not the owner\");\r\n        _;\r\n    }\r\n\r\n\r\n    function renounceOwnership() public virtual onlyOwner {\r\n        emit OwnershipTransferred(_owner, address(0));\r\n        _owner = address(0);\r\n    }\r\n\r\n\r\n    function transferOwnership(address newOwner) public virtual onlyOwner {\r\n        require(\r\n            newOwner != address(0),\r\n            \"Ownable: new owner is the zero address\"\r\n        );\r\n        emit OwnershipTransferred(_owner, newOwner);\r\n        _owner = newOwner;\r\n    }\r\n}\r\n\r\n\r\ninterface IUniswapV2Factory {\r\n    function createPair(address tokenA, address tokenB) external returns (address pair);\r\n}\r\n\r\ninterface IUniswapV2Pair {\r\n    function sync() external;\r\n}\r\n\r\ninterface IUniswapV2Router01 {\r\n    function factory() external pure returns (address);\r\n    function WETH() external pure returns (address);\r\n    function addLiquidity(\r\n        address tokenA,\r\n        address tokenB,\r\n        uint amountADesired,\r\n        uint amountBDesired,\r\n        uint amountAMin,\r\n        uint amountBMin,\r\n        address to,\r\n        uint deadline\r\n    ) external returns (uint amountA, uint amountB, uint liquidity);\r\n    function addLiquidityETH(\r\n        address token,\r\n        uint amountTokenDesired,\r\n        uint amountTokenMin,\r\n        uint amountETHMin,\r\n        address to,\r\n        uint deadline\r\n    ) external payable returns (uint amountToken, uint amountETH, uint liquidity);\r\n}\r\n\r\ninterface IUniswapV2Router02 is IUniswapV2Router01 {\r\n    function removeLiquidityETHSupportingFeeOnTransferTokens(\r\n      address token,\r\n      uint liquidity,\r\n      uint amountTokenMin,\r\n      uint amountETHMin,\r\n      address to,\r\n      uint deadline\r\n    ) external returns (uint amountETH);\r\n    function swapExactTokensForETHSupportingFeeOnTransferTokens(\r\n        uint amountIn,\r\n        uint amountOutMin,\r\n        address[] calldata path,\r\n        address to,\r\n        uint deadline\r\n    ) external;\r\n    function swapExactTokensForTokensSupportingFeeOnTransferTokens(\r\n        uint amountIn,\r\n        uint amountOutMin,\r\n        address[] calldata path,\r\n        address to,\r\n        uint deadline\r\n    ) external;\r\n    function swapExactETHForTokensSupportingFeeOnTransferTokens(\r\n        uint amountOutMin,\r\n        address[] calldata path,\r\n        address to,\r\n        uint deadline\r\n    ) external payable;\r\n}\r\n// change \"name1\" into ur name\r\n    contract PawthereumTest is Context, IERC20, Ownable {\r\n    using SafeMath for uint256;\r\n    using Address for address;\r\n\r\n//change \"name1\" and \"symbol\"\r\n    string private _name = \"PawthereumTest\";\r\n    string private _symbol = \"PAWTHTEST\";\r\n    \r\n    uint8 private _decimals = 9;\r\n\r\n    mapping(address => uint256) internal _reflectionBalance;\r\n    mapping(address => uint256) internal _tokenBalance;\r\n    mapping(address => mapping(address => uint256)) internal _allowances;\r\n\r\n    uint256 private constant MAX = ~uint256(0);\r\n    \r\n    // change this for total supply (100e8 = 100) (100000000e8 = 100000000) (dont forget the e8 it has to be there)\r\n    uint256 internal _tokenTotal = 1000000000e9;\r\n    // change this for total supply ^^^^^^^^^^^^^^^^^^^^^\r\n    uint256 internal _reflectionTotal = (MAX - (MAX % _tokenTotal));\r\n\r\n    mapping(address => bool) isTaxless;\r\n    mapping(address => bool) internal _isExcluded;\r\n    address[] internal _excluded;\r\n    \r\n    uint256 public _feeDecimal = 2;\r\n    // thats the distribution to holders (400 = 4%)\r\n    uint256 public _taxFee = 200;\r\n    // thats the amount for liquidity pool\r\n    uint256 public _liquidityFee = 100;\r\n    // this amount gets burned by every transaction\r\n    uint256 public _burnFee = 0;\r\n    // this goes to the marketing wallet (line 403)\r\n    uint256 public _marketingFee = 100;\r\n\t// this goes to the charity wallet \r\n\tuint256 public _charityFee = 200;\r\n\t\r\n    uint256 public _taxFeeTotal;\r\n    uint256 public _burnFeeTotal;\r\n    uint256 public _liquidityFeeTotal;\r\n    uint256 public _marketingFeeTotal;\r\n\tuint256 public _charityFeeTotal;\r\n\r\n    address public marketingWallet;\r\n\taddress public charityWallet;\r\n\r\n    bool public isTaxActive = true;\r\n    bool private inSwapAndLiquify;\r\n    bool public swapAndLiquifyEnabled = true;\r\n    \r\n    uint256 public maxTxAmount = _tokenTotal;\r\n    uint256 public minTokensBeforeSwap = 10_000e9;\r\n    \r\n    IUniswapV2Router02 public  uniswapV2Router;\r\n    address public  uniswapV2Pair;\r\n\r\n    event SwapAndLiquifyEnabledUpdated(bool enabled);\r\n    event SwapAndLiquify(uint256 tokensSwapped,uint256 ethReceived, uint256 tokensIntoLiqudity);\r\n\r\n    modifier lockTheSwap {\r\n        inSwapAndLiquify = true;\r\n        _;\r\n        inSwapAndLiquify = false;\r\n    }\r\n\r\n    constructor() public {\r\n        //paste the wallet adress, that earns the marketingFee here\r\n        marketingWallet = 0x971dB08176bba44e7D5D0733D9f1127684033E47;\r\n\t\t//paste the wallet address that earns the charityFee here\r\n\t\tcharityWallet = 0xaf284EfD8C649522120a05bfeeB36F2b6e7c970C;\r\n        //paste the wallet ^^^^^^^^^^^^^^^^^^^^^ adress, that earns the marketingFee here\r\n\r\n      \r\n        isTaxless[_msgSender()] = true;\r\n        isTaxless[address(this)] = true;\r\n\r\n        _reflectionBalance[_msgSender()] = _reflectionTotal;\r\n        emit Transfer(address(0), _msgSender(), _tokenTotal);\r\n    }\r\n\r\n    function init() external onlyOwner() {\r\n        // IUniswapV2Router02 _uniswapV2Router = IUniswapV2Router02(0x10ED43C718714eb63d5aA57B78B54704E256024E); // for BSC\r\n        IUniswapV2Router02 _uniswapV2Router = IUniswapV2Router02(0x7a250d5630B4cF539739dF2C5dAcb4c659F2488D); // for Ethereum\r\n        // IUniswapV2Router02 _uniswapV2Router = IUniswapV2Router02(0x1b02dA8Cb0d097eB8D57A175b88c7D8b47997506); // for Sushi testnet\r\n        uniswapV2Pair = IUniswapV2Factory(_uniswapV2Router.factory()).createPair(address(this), _uniswapV2Router.WETH());\r\n        uniswapV2Router = _uniswapV2Router;\r\n    }\r\n\r\n    function name() public view returns (string memory) {\r\n        return _name;\r\n    }\r\n\r\n    function symbol() public view returns (string memory) {\r\n        return _symbol;\r\n    }\r\n\r\n    function decimals() public view returns (uint8) {\r\n        return _decimals;\r\n    }\r\n\r\n    function totalSupply() public override view returns (uint256) {\r\n        return _tokenTotal;\r\n    }\r\n\r\n    function balanceOf(address account) public override view returns (uint256) {\r\n        if (_isExcluded[account]) return _tokenBalance[account];\r\n        return tokenFromReflection(_reflectionBalance[account]);\r\n    }\r\n\r\n    function transfer(address recipient, uint256 amount)\r\n        public\r\n        override\r\n        virtual\r\n        returns (bool)\r\n    {\r\n       _transfer(_msgSender(),recipient,amount);\r\n        return true;\r\n    }\r\n\r\n    function allowance(address owner, address spender)\r\n        public\r\n        override\r\n        view\r\n        returns (uint256)\r\n    {\r\n        return _allowances[owner][spender];\r\n    }\r\n\r\n    function approve(address spender, uint256 amount)\r\n        public\r\n        override\r\n        returns (bool)\r\n    {\r\n        _approve(_msgSender(), spender, amount);\r\n        return true;\r\n    }\r\n\r\n    function transferFrom(\r\n        address sender,\r\n        address recipient,\r\n        uint256 amount\r\n    ) public override virtual returns (bool) {\r\n        _transfer(sender,recipient,amount);\r\n               \r\n        _approve(sender,_msgSender(),_allowances[sender][_msgSender()].sub( amount,\"ERC20: transfer amount exceeds allowance\"));\r\n        return true;\r\n    }\r\n\r\n    function increaseAllowance(address spender, uint256 addedValue)\r\n        public\r\n        virtual\r\n        returns (bool)\r\n    {\r\n        _approve(\r\n            _msgSender(),\r\n            spender,\r\n            _allowances[_msgSender()][spender].add(addedValue)\r\n        );\r\n        return true;\r\n    }\r\n\r\n    function decreaseAllowance(address spender, uint256 subtractedValue)\r\n        public\r\n        virtual\r\n        returns (bool)\r\n    {\r\n        _approve(\r\n            _msgSender(),\r\n            spender,\r\n            _allowances[_msgSender()][spender].sub(\r\n                subtractedValue,\r\n                \"ERC20: decreased allowance below zero\"\r\n            )\r\n        );\r\n        return true;\r\n    }\r\n\r\n    function isExcluded(address account) public view returns (bool) {\r\n        return _isExcluded[account];\r\n    }\r\n\r\n    function reflectionFromToken(uint256 tokenAmount, bool deductTransferFee)\r\n        public\r\n        view\r\n        returns (uint256)\r\n    {\r\n        require(tokenAmount <= _tokenTotal, \"Amount must be less than supply\");\r\n        if (!deductTransferFee) {\r\n            return tokenAmount.mul(_getReflectionRate());\r\n        } else {\r\n            return\r\n                tokenAmount.sub(tokenAmount.mul(_taxFee).div(10** _feeDecimal + 2)).mul(\r\n                    _getReflectionRate()\r\n                );\r\n        }\r\n    }\r\n\r\n    function tokenFromReflection(uint256 reflectionAmount)\r\n        public\r\n        view\r\n        returns (uint256)\r\n    {\r\n        require(\r\n            reflectionAmount <= _reflectionTotal,\r\n            \"Amount must be less than total reflections\"\r\n        );\r\n        uint256 currentRate = _getReflectionRate();\r\n        return reflectionAmount.div(currentRate);\r\n    }\r\n\r\n    function excludeAccount(address account) external onlyOwner() {\r\n        require(\r\n            account != address(uniswapV2Router),\r\n            \"ERC20: We can not exclude Uniswap router.\"\r\n        );\r\n        require(!_isExcluded[account], \"ERC20: Account is already excluded\");\r\n        if (_reflectionBalance[account] > 0) {\r\n            _tokenBalance[account] = tokenFromReflection(\r\n                _reflectionBalance[account]\r\n            );\r\n        }\r\n        _isExcluded[account] = true;\r\n        _excluded.push(account);\r\n    }\r\n\r\n    function includeAccount(address account) external onlyOwner() {\r\n        require(_isExcluded[account], \"ERC20: Account is already included\");\r\n        for (uint256 i = 0; i < _excluded.length; i++) {\r\n            if (_excluded[i] == account) {\r\n                _excluded[i] = _excluded[_excluded.length - 1];\r\n                _tokenBalance[account] = 0;\r\n                _isExcluded[account] = false;\r\n                _excluded.pop();\r\n                break;\r\n            }\r\n        }\r\n    }\r\n\r\n    function _approve(\r\n        address owner,\r\n        address spender,\r\n        uint256 amount\r\n    ) private {\r\n        require(owner != address(0), \"ERC20: approve from the zero address\");\r\n        require(spender != address(0), \"ERC20: approve to the zero address\");\r\n\r\n        _allowances[owner][spender] = amount;\r\n        emit Approval(owner, spender, amount);\r\n    }\r\n\r\n    function _transfer(\r\n        address sender,\r\n        address recipient,\r\n        uint256 amount\r\n    ) private {\r\n        require(sender != address(0), \"ERC20: transfer from the zero address\");\r\n        require(recipient != address(0), \"ERC20: transfer to the zero address\");\r\n        require(amount > 0, \"Transfer amount must be greater than zero\");\r\n        \r\n        require(amount <= maxTxAmount, \"Transfer Limit exceeded!\");\r\n        \r\n        uint256 contractTokenBalance = balanceOf(address(this));\r\n        bool overMinTokenBalance = contractTokenBalance >= minTokensBeforeSwap;\r\n        if (!inSwapAndLiquify && overMinTokenBalance && sender != uniswapV2Pair && swapAndLiquifyEnabled) {\r\n            swapAndLiquify(contractTokenBalance);\r\n        }\r\n\r\n        uint256 transferAmount = amount;\r\n        uint256 rate = _getReflectionRate();\r\n\r\n        if(isTaxActive && !isTaxless[_msgSender()] && !isTaxless[recipient] && !inSwapAndLiquify){\r\n            transferAmount = collectFee(sender,amount,rate);\r\n        }\r\n\r\n        _reflectionBalance[sender] = _reflectionBalance[sender].sub(amount.mul(rate));\r\n        _reflectionBalance[recipient] = _reflectionBalance[recipient].add(transferAmount.mul(rate));\r\n\r\n        if (_isExcluded[sender]) {\r\n            _tokenBalance[sender] = _tokenBalance[sender].sub(amount);\r\n        }\r\n        if (_isExcluded[recipient]) {\r\n            _tokenBalance[recipient] = _tokenBalance[recipient].add(transferAmount);\r\n        }\r\n\r\n        emit Transfer(sender, recipient, transferAmount);\r\n    }\r\n    \r\n    function collectFee(address account, uint256 amount, uint256 rate) private returns (uint256) {\r\n        uint256 transferAmount = amount;\r\n        \r\n        //@dev tax fee\r\n        if(_taxFee != 0){\r\n            uint256 taxFee = amount.mul(_taxFee).div(10**(_feeDecimal + 2));\r\n            transferAmount = transferAmount.sub(taxFee);\r\n            _reflectionTotal = _reflectionTotal.sub(taxFee.mul(rate));\r\n            _taxFeeTotal = _taxFeeTotal.add(taxFee);\r\n        }\r\n\r\n        //@dev liquidity fee\r\n        if(_liquidityFee != 0){\r\n            uint256 liquidityFee = amount.mul(_liquidityFee).div(10**(_feeDecimal + 2));\r\n            transferAmount = transferAmount.sub(liquidityFee);\r\n            _reflectionBalance[address(this)] = _reflectionBalance[address(this)].add(liquidityFee.mul(rate));\r\n            if(_isExcluded[address(this)]){\r\n                _tokenBalance[address(this)] = _tokenBalance[address(this)].add(liquidityFee);\r\n            }\r\n            _liquidityFeeTotal = _liquidityFeeTotal.add(liquidityFee);\r\n            emit Transfer(account,address(this),liquidityFee);\r\n        }\r\n      \r\n        //@dev burn fee\r\n        if(_burnFee != 0){\r\n            uint256 burnFee = amount.mul(_burnFee).div(10**(_feeDecimal + 2));\r\n            transferAmount = transferAmount.sub(burnFee);\r\n            _tokenTotal = _tokenTotal.sub(burnFee);\r\n            _reflectionTotal = _reflectionTotal.sub(burnFee.mul(rate));\r\n            _burnFeeTotal = _burnFeeTotal.add(burnFee);\r\n            emit Transfer(account,address(0),burnFee);\r\n        }\r\n        \r\n        //@dev Marketing fee\r\n        if(_marketingFee != 0){\r\n            uint256 marketingFee = amount.mul(_marketingFee).div(10**(_feeDecimal + 2));\r\n            transferAmount = transferAmount.sub(marketingFee);\r\n            _reflectionBalance[marketingWallet] = _reflectionBalance[marketingWallet].add(marketingFee.mul(rate));\r\n            if (_isExcluded[marketingWallet]) {\r\n                _tokenBalance[marketingWallet] = _tokenBalance[marketingWallet].add(marketingFee);\r\n            }\r\n            _marketingFeeTotal = _marketingFeeTotal.add(marketingFee);\r\n            emit Transfer(account,marketingWallet,marketingFee);\r\n        }\r\n\t\t\r\n        //@dev Charity fee\r\n        if(_charityFee != 0){\r\n            uint256 charityFee = amount.mul(_charityFee).div(10**(_feeDecimal + 2));\r\n            transferAmount = transferAmount.sub(charityFee);\r\n            _reflectionBalance[charityWallet] = _reflectionBalance[charityWallet].add(charityFee.mul(rate));\r\n            if (_isExcluded[charityWallet]) {\r\n                _tokenBalance[charityWallet] = _tokenBalance[charityWallet].add(charityFee);\r\n            }\r\n            _charityFeeTotal = _charityFeeTotal.add(charityFee);\r\n            emit Transfer(account,charityWallet,charityFee);\r\n        }\r\n        \r\n        return transferAmount;\r\n    }\r\n\r\n    function _getReflectionRate() private view returns (uint256) {\r\n        uint256 reflectionSupply = _reflectionTotal;\r\n        uint256 tokenSupply = _tokenTotal;\r\n        for (uint256 i = 0; i < _excluded.length; i++) {\r\n            if (\r\n                _reflectionBalance[_excluded[i]] > reflectionSupply ||\r\n                _tokenBalance[_excluded[i]] > tokenSupply\r\n            ) return _reflectionTotal.div(_tokenTotal);\r\n            reflectionSupply = reflectionSupply.sub(\r\n                _reflectionBalance[_excluded[i]]\r\n            );\r\n            tokenSupply = tokenSupply.sub(_tokenBalance[_excluded[i]]);\r\n        }\r\n        if (reflectionSupply < _reflectionTotal.div(_tokenTotal))\r\n            return _reflectionTotal.div(_tokenTotal);\r\n        return reflectionSupply.div(tokenSupply);\r\n    }\r\n    \r\n     function swapAndLiquify(uint256 contractTokenBalance) private lockTheSwap {\r\n         if(contractTokenBalance > maxTxAmount)\r\n            contractTokenBalance = maxTxAmount;\r\n        uint256 half = contractTokenBalance.div(2);\r\n        uint256 otherHalf = contractTokenBalance.sub(half);\r\n\r\n\r\n        uint256 initialBalance = address(this).balance;\r\n\r\n        swapTokensForEth(half); \r\n\r\n        uint256 newBalance = address(this).balance.sub(initialBalance);\r\n\r\n        addLiquidity(otherHalf, newBalance);\r\n        \r\n        emit SwapAndLiquify(half, newBalance, otherHalf);\r\n    }\r\n\r\n    function swapTokensForEth(uint256 tokenAmount) private {\r\n        address[] memory path = new address[](2);\r\n        path[0] = address(this);\r\n        path[1] = uniswapV2Router.WETH();\r\n\r\n        _approve(address(this), address(uniswapV2Router), tokenAmount);\r\n\r\n        uniswapV2Router.swapExactTokensForETHSupportingFeeOnTransferTokens(\r\n            tokenAmount,\r\n            0, \r\n            path,\r\n            address(this),\r\n            block.timestamp\r\n        );\r\n    }\r\n\r\n    function addLiquidity(uint256 tokenAmount, uint256 ethAmount) private {\r\n        _approve(address(this), address(uniswapV2Router), tokenAmount);\r\n\r\n        uniswapV2Router.addLiquidityETH{value: ethAmount}(\r\n            address(this),\r\n            tokenAmount,\r\n            0, \r\n            0, \r\n            address(this),\r\n            block.timestamp\r\n        );\r\n    }\r\n   \r\n    function setPair(address pair) external onlyOwner {\r\n        uniswapV2Pair = pair;\r\n    }\r\n    \r\n    function setMarketingWallet(address account) external onlyOwner {\r\n        marketingWallet = account;\r\n    }\r\n\t\r\n\tfunction setCharityWallet(address account) external onlyOwner {\r\n\t\tcharityWallet = account;\r\n\t}\r\n\t\r\n\r\n    function setTaxless(address account, bool value) external onlyOwner {\r\n        isTaxless[account] = value;\r\n    }\r\n    \r\n    function setSwapAndLiquifyEnabled(bool enabled) external onlyOwner {\r\n        swapAndLiquifyEnabled = enabled;\r\n        SwapAndLiquifyEnabledUpdated(enabled);\r\n    }\r\n    \r\n    function setTaxActive(bool value) external onlyOwner {\r\n        isTaxActive = value;\r\n    }\r\n    \r\n    function setTaxFee(uint256 fee) external onlyOwner {\r\n        _taxFee = fee;\r\n    }\r\n    \r\n    function setBurnFee(uint256 fee) external onlyOwner {\r\n        _burnFee = fee;\r\n    }\r\n    \r\n    function setLiquidityFee(uint256 fee) external onlyOwner {\r\n        _liquidityFee = fee;\r\n    }\r\n \r\n    function setMarketingFee(uint256 fee) external onlyOwner {\r\n        _marketingFee = fee;\r\n    }\r\n\t\r\n\tfunction setCharityFee(uint256 fee) external onlyOwner {\r\n\t\t_charityFee = fee;\r\n\t}\r\n \r\n    function setMaxTxAmount(uint256 amount) external onlyOwner {\r\n        maxTxAmount = amount;\r\n    }\r\n    \r\n    function setMinTokensBeforeSwap(uint256 amount) external onlyOwner {\r\n        minTokensBeforeSwap = amount;\r\n    }\r\n\r\n    receive() external payable {}\r\n}",
  "sourcePath": "C:/Users/kdmcg/Documents/Grumpy_Pawth_Swap/src/contracts/PawthereumTest.sol",
  "compiler": {
    "name": "solc",
    "version": "0.6.12+commit.27d51765.Emscripten.clang"
  },
  "schemaVersion": "3.2.3",
  "updatedAt": "2021-09-12T17:41:46.048Z",
  "networkType": "ethereum",
  "devdoc": {
    "kind": "dev",
    "methods": {},
    "version": 1
  },
  "userdoc": {
    "kind": "user",
    "methods": {},
    "version": 1
  }
}